{
  "contractName": "KryptoDevelopers",
  "abi": [
    {
      "inputs": [],
      "stateMutability": "nonpayable",
      "type": "constructor"
    },
    {
      "anonymous": false,
      "inputs": [
        {
          "indexed": true,
          "internalType": "address",
          "name": "owner",
          "type": "address"
        },
        {
          "indexed": true,
          "internalType": "address",
          "name": "approved",
          "type": "address"
        },
        {
          "indexed": true,
          "internalType": "uint256",
          "name": "tokenId",
          "type": "uint256"
        }
      ],
      "name": "Approval",
      "type": "event"
    },
    {
      "anonymous": false,
      "inputs": [
        {
          "indexed": true,
          "internalType": "address",
          "name": "owner",
          "type": "address"
        },
        {
          "indexed": true,
          "internalType": "address",
          "name": "operator",
          "type": "address"
        },
        {
          "indexed": false,
          "internalType": "bool",
          "name": "approved",
          "type": "bool"
        }
      ],
      "name": "ApprovalForAll",
      "type": "event"
    },
    {
      "anonymous": false,
      "inputs": [
        {
          "indexed": true,
          "internalType": "address",
          "name": "previousOwner",
          "type": "address"
        },
        {
          "indexed": true,
          "internalType": "address",
          "name": "newOwner",
          "type": "address"
        }
      ],
      "name": "OwnershipTransferred",
      "type": "event"
    },
    {
      "anonymous": false,
      "inputs": [
        {
          "indexed": true,
          "internalType": "address",
          "name": "from",
          "type": "address"
        },
        {
          "indexed": true,
          "internalType": "address",
          "name": "to",
          "type": "address"
        },
        {
          "indexed": true,
          "internalType": "uint256",
          "name": "tokenId",
          "type": "uint256"
        }
      ],
      "name": "Transfer",
      "type": "event"
    },
    {
      "inputs": [],
      "name": "MAX_DEVELOPERS",
      "outputs": [
        {
          "internalType": "uint256",
          "name": "",
          "type": "uint256"
        }
      ],
      "stateMutability": "view",
      "type": "function",
      "constant": true
    },
    {
      "inputs": [],
      "name": "MAX_MINT_QUANTITY",
      "outputs": [
        {
          "internalType": "uint256",
          "name": "",
          "type": "uint256"
        }
      ],
      "stateMutability": "view",
      "type": "function",
      "constant": true
    },
    {
      "inputs": [
        {
          "internalType": "address",
          "name": "to",
          "type": "address"
        },
        {
          "internalType": "uint256",
          "name": "tokenId",
          "type": "uint256"
        }
      ],
      "name": "approve",
      "outputs": [],
      "stateMutability": "nonpayable",
      "type": "function"
    },
    {
      "inputs": [
        {
          "internalType": "address",
          "name": "owner",
          "type": "address"
        }
      ],
      "name": "balanceOf",
      "outputs": [
        {
          "internalType": "uint256",
          "name": "",
          "type": "uint256"
        }
      ],
      "stateMutability": "view",
      "type": "function",
      "constant": true
    },
    {
      "inputs": [],
      "name": "developerPrice",
      "outputs": [
        {
          "internalType": "uint256",
          "name": "",
          "type": "uint256"
        }
      ],
      "stateMutability": "view",
      "type": "function",
      "constant": true
    },
    {
      "inputs": [],
      "name": "developersBaseURI",
      "outputs": [
        {
          "internalType": "string",
          "name": "",
          "type": "string"
        }
      ],
      "stateMutability": "view",
      "type": "function",
      "constant": true
    },
    {
      "inputs": [
        {
          "internalType": "uint256",
          "name": "tokenId",
          "type": "uint256"
        }
      ],
      "name": "getApproved",
      "outputs": [
        {
          "internalType": "address",
          "name": "",
          "type": "address"
        }
      ],
      "stateMutability": "view",
      "type": "function",
      "constant": true
    },
    {
      "inputs": [
        {
          "internalType": "address",
          "name": "owner",
          "type": "address"
        },
        {
          "internalType": "address",
          "name": "operator",
          "type": "address"
        }
      ],
      "name": "isApprovedForAll",
      "outputs": [
        {
          "internalType": "bool",
          "name": "",
          "type": "bool"
        }
      ],
      "stateMutability": "view",
      "type": "function",
      "constant": true
    },
    {
      "inputs": [],
      "name": "name",
      "outputs": [
        {
          "internalType": "string",
          "name": "",
          "type": "string"
        }
      ],
      "stateMutability": "view",
      "type": "function",
      "constant": true
    },
    {
      "inputs": [],
      "name": "owner",
      "outputs": [
        {
          "internalType": "address",
          "name": "",
          "type": "address"
        }
      ],
      "stateMutability": "view",
      "type": "function",
      "constant": true
    },
    {
      "inputs": [
        {
          "internalType": "uint256",
          "name": "tokenId",
          "type": "uint256"
        }
      ],
      "name": "ownerOf",
      "outputs": [
        {
          "internalType": "address",
          "name": "",
          "type": "address"
        }
      ],
      "stateMutability": "view",
      "type": "function",
      "constant": true
    },
    {
      "inputs": [],
      "name": "renounceOwnership",
      "outputs": [],
      "stateMutability": "nonpayable",
      "type": "function"
    },
    {
      "inputs": [
        {
          "internalType": "address",
          "name": "from",
          "type": "address"
        },
        {
          "internalType": "address",
          "name": "to",
          "type": "address"
        },
        {
          "internalType": "uint256",
          "name": "tokenId",
          "type": "uint256"
        }
      ],
      "name": "safeTransferFrom",
      "outputs": [],
      "stateMutability": "nonpayable",
      "type": "function"
    },
    {
      "inputs": [
        {
          "internalType": "address",
          "name": "from",
          "type": "address"
        },
        {
          "internalType": "address",
          "name": "to",
          "type": "address"
        },
        {
          "internalType": "uint256",
          "name": "tokenId",
          "type": "uint256"
        },
        {
          "internalType": "bytes",
          "name": "_data",
          "type": "bytes"
        }
      ],
      "name": "safeTransferFrom",
      "outputs": [],
      "stateMutability": "nonpayable",
      "type": "function"
    },
    {
      "inputs": [],
      "name": "saleIsActive",
      "outputs": [
        {
          "internalType": "bool",
          "name": "",
          "type": "bool"
        }
      ],
      "stateMutability": "view",
      "type": "function",
      "constant": true
    },
    {
      "inputs": [
        {
          "internalType": "address",
          "name": "operator",
          "type": "address"
        },
        {
          "internalType": "bool",
          "name": "approved",
          "type": "bool"
        }
      ],
      "name": "setApprovalForAll",
      "outputs": [],
      "stateMutability": "nonpayable",
      "type": "function"
    },
    {
      "inputs": [
        {
          "internalType": "bytes4",
          "name": "interfaceId",
          "type": "bytes4"
        }
      ],
      "name": "supportsInterface",
      "outputs": [
        {
          "internalType": "bool",
          "name": "",
          "type": "bool"
        }
      ],
      "stateMutability": "view",
      "type": "function",
      "constant": true
    },
    {
      "inputs": [],
      "name": "symbol",
      "outputs": [
        {
          "internalType": "string",
          "name": "",
          "type": "string"
        }
      ],
      "stateMutability": "view",
      "type": "function",
      "constant": true
    },
    {
      "inputs": [
        {
          "internalType": "uint256",
          "name": "index",
          "type": "uint256"
        }
      ],
      "name": "tokenByIndex",
      "outputs": [
        {
          "internalType": "uint256",
          "name": "",
          "type": "uint256"
        }
      ],
      "stateMutability": "view",
      "type": "function",
      "constant": true
    },
    {
      "inputs": [
        {
          "internalType": "address",
          "name": "owner",
          "type": "address"
        },
        {
          "internalType": "uint256",
          "name": "index",
          "type": "uint256"
        }
      ],
      "name": "tokenOfOwnerByIndex",
      "outputs": [
        {
          "internalType": "uint256",
          "name": "",
          "type": "uint256"
        }
      ],
      "stateMutability": "view",
      "type": "function",
      "constant": true
    },
    {
      "inputs": [],
      "name": "totalSupply",
      "outputs": [
        {
          "internalType": "uint256",
          "name": "",
          "type": "uint256"
        }
      ],
      "stateMutability": "view",
      "type": "function",
      "constant": true
    },
    {
      "inputs": [
        {
          "internalType": "address",
          "name": "from",
          "type": "address"
        },
        {
          "internalType": "address",
          "name": "to",
          "type": "address"
        },
        {
          "internalType": "uint256",
          "name": "tokenId",
          "type": "uint256"
        }
      ],
      "name": "transferFrom",
      "outputs": [],
      "stateMutability": "nonpayable",
      "type": "function"
    },
    {
      "inputs": [
        {
          "internalType": "address",
          "name": "newOwner",
          "type": "address"
        }
      ],
      "name": "transferOwnership",
      "outputs": [],
      "stateMutability": "nonpayable",
      "type": "function"
    },
    {
      "inputs": [],
      "name": "flipSaleState",
      "outputs": [],
      "stateMutability": "nonpayable",
      "type": "function"
    },
    {
      "inputs": [
        {
          "internalType": "uint256",
          "name": "quantity",
          "type": "uint256"
        }
      ],
      "name": "mint",
      "outputs": [],
      "stateMutability": "payable",
      "type": "function",
      "payable": true
    },
    {
      "inputs": [
        {
          "internalType": "string",
          "name": "baseURI_",
          "type": "string"
        }
      ],
      "name": "setBaseURI",
      "outputs": [],
      "stateMutability": "nonpayable",
      "type": "function"
    },
    {
      "inputs": [
        {
          "internalType": "uint256",
          "name": "tokenId",
          "type": "uint256"
        }
      ],
      "name": "tokenURI",
      "outputs": [
        {
          "internalType": "string",
          "name": "",
          "type": "string"
        }
      ],
      "stateMutability": "view",
      "type": "function",
      "constant": true
    },
    {
      "inputs": [
        {
          "internalType": "address",
          "name": "owner",
          "type": "address"
        }
      ],
      "name": "tokensOfOwner",
      "outputs": [
        {
          "internalType": "uint256[]",
          "name": "",
          "type": "uint256[]"
        }
      ],
      "stateMutability": "view",
      "type": "function",
      "constant": true
    },
    {
      "inputs": [],
      "name": "withdrawAll",
      "outputs": [],
      "stateMutability": "payable",
      "type": "function",
      "payable": true
    },
    {
      "inputs": [
        {
          "internalType": "address",
          "name": "_to",
          "type": "address"
        },
        {
          "internalType": "uint256",
          "name": "_amount",
          "type": "uint256"
        }
      ],
      "name": "giveAway",
      "outputs": [],
      "stateMutability": "nonpayable",
      "type": "function"
    }
  ],
  "bytecode": "0x60806040526101f4600d556000600e60006101000a81548160ff021916908315150217905550734bd9736f70cbc26b8a0dac95d17aaca4baeda360600e60016101000a81548173ffffffffffffffffffffffffffffffffffffffff021916908373ffffffffffffffffffffffffffffffffffffffff16021790555073869a4f9de3e127d7ae60f51e8cb86abdf6ade5b4600f60006101000a81548173ffffffffffffffffffffffffffffffffffffffff021916908373ffffffffffffffffffffffffffffffffffffffff160217905550735a3ba050b8fd4cbba0f0b10ea656edc68e4a91e2601060006101000a81548173ffffffffffffffffffffffffffffffffffffffff021916908373ffffffffffffffffffffffffffffffffffffffff16021790555073a840fd4343a783aecc294e6f6eed885b85fca5c9601160006101000a81548173ffffffffffffffffffffffffffffffffffffffff021916908373ffffffffffffffffffffffffffffffffffffffff1602179055503480156200018657600080fd5b506040518060400160405280601081526020017f4b727970746f446576656c6f70657273000000000000000000000000000000008152506040518060400160405280600481526020017f4b4445560000000000000000000000000000000000000000000000000000000081525081600090805190602001906200020b9291906200034d565b508060019080519060200190620002249291906200034d565b505050620002476200023b6200027f60201b60201c565b6200028760201b60201c565b604051806060016040528060288152602001620046dc60289139600c9080519060200190620002789291906200034d565b5062000462565b600033905090565b6000600a60009054906101000a900473ffffffffffffffffffffffffffffffffffffffff16905081600a60006101000a81548173ffffffffffffffffffffffffffffffffffffffff021916908373ffffffffffffffffffffffffffffffffffffffff1602179055508173ffffffffffffffffffffffffffffffffffffffff168173ffffffffffffffffffffffffffffffffffffffff167f8be0079c531659141344cd1fd0a4f28419497f9722a3daafe3b4186f6b6457e060405160405180910390a35050565b8280546200035b90620003fd565b90600052602060002090601f0160209004810192826200037f5760008555620003cb565b82601f106200039a57805160ff1916838001178555620003cb565b82800160010185558215620003cb579182015b82811115620003ca578251825591602001919060010190620003ad565b5b509050620003da9190620003de565b5090565b5b80821115620003f9576000816000905550600101620003df565b5090565b600060028204905060018216806200041657607f821691505b602082108114156200042d576200042c62000433565b5b50919050565b7f4e487b7100000000000000000000000000000000000000000000000000000000600052602260045260246000fd5b61426a80620004726000396000f3fe6080604052600436106101cd5760003560e01c8063715018a6116100f7578063a22cb46511610095578063e985e9c511610064578063e985e9c51461065a578063eb8d244414610697578063ec78c00f146106c2578063f2fde38b146106ed576101cd565b8063a22cb465146105a2578063b88d4fde146105cb578063c87b56dd146105f4578063ca80014414610631576101cd565b80638da5cb5b116100d15780638da5cb5b1461050557806395d89b411461053057806397210d6b1461055b578063a0712d6814610586576101cd565b8063715018a6146104a75780638462151c146104be578063853828b6146104fb576101cd565b806334918dfd1161016f5780635f890ddf1161013e5780635f890ddf146103d75780636352211e1461040257806370a082311461043f57806371273bb71461047c576101cd565b806334918dfd1461033157806342842e0e146103485780634f6ccce71461037157806355f804b3146103ae576101cd565b8063095ea7b3116101ab578063095ea7b31461027757806318160ddd146102a057806323b872dd146102cb5780632f745c59146102f4576101cd565b806301ffc9a7146101d257806306fdde031461020f578063081812fc1461023a575b600080fd5b3480156101de57600080fd5b506101f960048036038101906101f49190612f25565b610716565b6040516102069190613a4f565b60405180910390f35b34801561021b57600080fd5b50610224610790565b6040516102319190613a6a565b60405180910390f35b34801561024657600080fd5b50610261600480360381019061025c9190612fb8565b610822565b60405161026e91906139c6565b60405180910390f35b34801561028357600080fd5b5061029e60048036038101906102999190612ee9565b6108a7565b005b3480156102ac57600080fd5b506102b56109bf565b6040516102c29190613d6c565b60405180910390f35b3480156102d757600080fd5b506102f260048036038101906102ed9190612de3565b6109cc565b005b34801561030057600080fd5b5061031b60048036038101906103169190612ee9565b610a2c565b6040516103289190613d6c565b60405180910390f35b34801561033d57600080fd5b50610346610ad1565b005b34801561035457600080fd5b5061036f600480360381019061036a9190612de3565b610b79565b005b34801561037d57600080fd5b5061039860048036038101906103939190612fb8565b610b99565b6040516103a59190613d6c565b60405180910390f35b3480156103ba57600080fd5b506103d560048036038101906103d09190612f77565b610c30565b005b3480156103e357600080fd5b506103ec610cc6565b6040516103f99190613d6c565b60405180910390f35b34801561040e57600080fd5b5061042960048036038101906104249190612fb8565b610cd1565b60405161043691906139c6565b60405180910390f35b34801561044b57600080fd5b5061046660048036038101906104619190612d7e565b610d83565b6040516104739190613d6c565b60405180910390f35b34801561048857600080fd5b50610491610e3b565b60405161049e9190613d6c565b60405180910390f35b3480156104b357600080fd5b506104bc610e40565b005b3480156104ca57600080fd5b506104e560048036038101906104e09190612d7e565b610ec8565b6040516104f29190613a2d565b60405180910390f35b610503610fc2565b005b34801561051157600080fd5b5061051a6111d2565b60405161052791906139c6565b60405180910390f35b34801561053c57600080fd5b506105456111fc565b6040516105529190613a6a565b60405180910390f35b34801561056757600080fd5b5061057061128e565b60405161057d9190613a6a565b60405180910390f35b6105a0600480360381019061059b9190612fb8565b61131c565b005b3480156105ae57600080fd5b506105c960048036038101906105c49190612ead565b6114c0565b005b3480156105d757600080fd5b506105f260048036038101906105ed9190612e32565b611641565b005b34801561060057600080fd5b5061061b60048036038101906106169190612fb8565b6116a3565b6040516106289190613a6a565b60405180910390f35b34801561063d57600080fd5b5061065860048036038101906106539190612ee9565b6117ae565b005b34801561066657600080fd5b50610681600480360381019061067c9190612da7565b6118cd565b60405161068e9190613a4f565b60405180910390f35b3480156106a357600080fd5b506106ac611961565b6040516106b99190613a4f565b60405180910390f35b3480156106ce57600080fd5b506106d7611974565b6040516106e49190613d6c565b60405180910390f35b3480156106f957600080fd5b50610714600480360381019061070f9190612d7e565b61197a565b005b60007f780e9d63000000000000000000000000000000000000000000000000000000007bffffffffffffffffffffffffffffffffffffffffffffffffffffffff1916827bffffffffffffffffffffffffffffffffffffffffffffffffffffffff19161480610789575061078882611a72565b5b9050919050565b60606000805461079f9061405f565b80601f01602080910402602001604051908101604052809291908181526020018280546107cb9061405f565b80156108185780601f106107ed57610100808354040283529160200191610818565b820191906000526020600020905b8154815290600101906020018083116107fb57829003601f168201915b5050505050905090565b600061082d82611b54565b61086c576040517f08c379a000000000000000000000000000000000000000000000000000000000815260040161086390613c4c565b60405180910390fd5b6004600083815260200190815260200160002060009054906101000a900473ffffffffffffffffffffffffffffffffffffffff169050919050565b60006108b282610cd1565b90508073ffffffffffffffffffffffffffffffffffffffff168373ffffffffffffffffffffffffffffffffffffffff161415610923576040517f08c379a000000000000000000000000000000000000000000000000000000000815260040161091a90613d0c565b60405180910390fd5b8073ffffffffffffffffffffffffffffffffffffffff16610942611bc0565b73ffffffffffffffffffffffffffffffffffffffff16148061097157506109708161096b611bc0565b6118cd565b5b6109b0576040517f08c379a00000000000000000000000000000000000000000000000000000000081526004016109a790613b8c565b60405180910390fd5b6109ba8383611bc8565b505050565b6000600880549050905090565b6109dd6109d7611bc0565b82611c81565b610a1c576040517f08c379a0000000000000000000000000000000000000000000000000000000008152600401610a1390613d2c565b60405180910390fd5b610a27838383611d5f565b505050565b6000610a3783610d83565b8210610a78576040517f08c379a0000000000000000000000000000000000000000000000000000000008152600401610a6f90613a8c565b60405180910390fd5b600660008473ffffffffffffffffffffffffffffffffffffffff1673ffffffffffffffffffffffffffffffffffffffff168152602001908152602001600020600083815260200190815260200160002054905092915050565b610ad9611bc0565b73ffffffffffffffffffffffffffffffffffffffff16610af76111d2565b73ffffffffffffffffffffffffffffffffffffffff1614610b4d576040517f08c379a0000000000000000000000000000000000000000000000000000000008152600401610b4490613c8c565b60405180910390fd5b600e60009054906101000a900460ff1615600e60006101000a81548160ff021916908315150217905550565b610b9483838360405180602001604052806000815250611641565b505050565b6000610ba36109bf565b8210610be4576040517f08c379a0000000000000000000000000000000000000000000000000000000008152600401610bdb90613d4c565b60405180910390fd5b60088281548110610c1e577f4e487b7100000000000000000000000000000000000000000000000000000000600052603260045260246000fd5b90600052602060002001549050919050565b610c38611bc0565b73ffffffffffffffffffffffffffffffffffffffff16610c566111d2565b73ffffffffffffffffffffffffffffffffffffffff1614610cac576040517f08c379a0000000000000000000000000000000000000000000000000000000008152600401610ca390613c8c565b60405180910390fd5b80600c9080519060200190610cc2929190612ba2565b5050565b66071afd498d000081565b6000806002600084815260200190815260200160002060009054906101000a900473ffffffffffffffffffffffffffffffffffffffff169050600073ffffffffffffffffffffffffffffffffffffffff168173ffffffffffffffffffffffffffffffffffffffff161415610d7a576040517f08c379a0000000000000000000000000000000000000000000000000000000008152600401610d7190613bcc565b60405180910390fd5b80915050919050565b60008073ffffffffffffffffffffffffffffffffffffffff168273ffffffffffffffffffffffffffffffffffffffff161415610df4576040517f08c379a0000000000000000000000000000000000000000000000000000000008152600401610deb90613bac565b60405180910390fd5b600360008373ffffffffffffffffffffffffffffffffffffffff1673ffffffffffffffffffffffffffffffffffffffff168152602001908152602001600020549050919050565b601981565b610e48611bc0565b73ffffffffffffffffffffffffffffffffffffffff16610e666111d2565b73ffffffffffffffffffffffffffffffffffffffff1614610ebc576040517f08c379a0000000000000000000000000000000000000000000000000000000008152600401610eb390613c8c565b60405180910390fd5b610ec66000611fbb565b565b60606000610ed583610d83565b905060008167ffffffffffffffff811115610f19577f4e487b7100000000000000000000000000000000000000000000000000000000600052604160045260246000fd5b604051908082528060200260200182016040528015610f475781602001602082028036833780820191505090505b50905060005b82811015610fb757610f5f8582610a2c565b828281518110610f98577f4e487b7100000000000000000000000000000000000000000000000000000000600052603260045260246000fd5b6020026020010181815250508080610faf90614091565b915050610f4d565b508092505050919050565b610fca611bc0565b73ffffffffffffffffffffffffffffffffffffffff16610fe86111d2565b73ffffffffffffffffffffffffffffffffffffffff161461103e576040517f08c379a000000000000000000000000000000000000000000000000000000000815260040161103590613c8c565b60405180910390fd5b600060044761104d9190613eea565b9050600e60019054906101000a900473ffffffffffffffffffffffffffffffffffffffff1673ffffffffffffffffffffffffffffffffffffffff166108fc829081150290604051600060405180830381858888f193505050506110af57600080fd5b600f60009054906101000a900473ffffffffffffffffffffffffffffffffffffffff1673ffffffffffffffffffffffffffffffffffffffff166108fc829081150290604051600060405180830381858888f1935050505061110f57600080fd5b601060009054906101000a900473ffffffffffffffffffffffffffffffffffffffff1673ffffffffffffffffffffffffffffffffffffffff166108fc829081150290604051600060405180830381858888f1935050505061116f57600080fd5b601160009054906101000a900473ffffffffffffffffffffffffffffffffffffffff1673ffffffffffffffffffffffffffffffffffffffff166108fc829081150290604051600060405180830381858888f193505050506111cf57600080fd5b50565b6000600a60009054906101000a900473ffffffffffffffffffffffffffffffffffffffff16905090565b60606001805461120b9061405f565b80601f01602080910402602001604051908101604052809291908181526020018280546112379061405f565b80156112845780601f1061125957610100808354040283529160200191611284565b820191906000526020600020905b81548152906001019060200180831161126757829003601f168201915b5050505050905090565b600c805461129b9061405f565b80601f01602080910402602001604051908101604052809291908181526020018280546112c79061405f565b80156113145780601f106112e957610100808354040283529160200191611314565b820191906000526020600020905b8154815290600101906020018083116112f757829003601f168201915b505050505081565b600e60009054906101000a900460ff1661136b576040517f08c379a000000000000000000000000000000000000000000000000000000000815260040161136290613c0c565b60405180910390fd5b60008111801561137c575060198111155b6113bb576040517f08c379a00000000000000000000000000000000000000000000000000000000081526004016113b290613bec565b60405180910390fd5b6127106113d8826113ca6109bf565b61208190919063ffffffff16565b1115611419576040517f08c379a000000000000000000000000000000000000000000000000000000000815260040161141090613cac565b60405180910390fd5b6114338166071afd498d000061209790919063ffffffff16565b341015611475576040517f08c379a000000000000000000000000000000000000000000000000000000000815260040161146c90613b4c565b60405180910390fd5b60005b818110156114bc57600061148a6109bf565b90506127106114976109bf565b10156114a8576114a733826120ad565b5b5080806114b490614091565b915050611478565b5050565b6114c8611bc0565b73ffffffffffffffffffffffffffffffffffffffff168273ffffffffffffffffffffffffffffffffffffffff161415611536576040517f08c379a000000000000000000000000000000000000000000000000000000000815260040161152d90613b2c565b60405180910390fd5b8060056000611543611bc0565b73ffffffffffffffffffffffffffffffffffffffff1673ffffffffffffffffffffffffffffffffffffffff16815260200190815260200160002060008473ffffffffffffffffffffffffffffffffffffffff1673ffffffffffffffffffffffffffffffffffffffff16815260200190815260200160002060006101000a81548160ff0219169083151502179055508173ffffffffffffffffffffffffffffffffffffffff166115f0611bc0565b73ffffffffffffffffffffffffffffffffffffffff167f17307eab39ab6107e8899845ad3d59bd9653f200f220920489ca2b5937696c31836040516116359190613a4f565b60405180910390a35050565b61165261164c611bc0565b83611c81565b611691576040517f08c379a000000000000000000000000000000000000000000000000000000000815260040161168890613d2c565b60405180910390fd5b61169d848484846120cb565b50505050565b60606116ae82611b54565b6116ed576040517f08c379a00000000000000000000000000000000000000000000000000000000081526004016116e490613cec565b60405180910390fd5b6000600c80546116fc9061405f565b80601f01602080910402602001604051908101604052809291908181526020018280546117289061405f565b80156117755780601f1061174a57610100808354040283529160200191611775565b820191906000526020600020905b81548152906001019060200180831161175857829003601f168201915b505050505090508061178684612127565b6040516020016117979291906139a2565b604051602081830303815290604052915050919050565b6117b6611bc0565b73ffffffffffffffffffffffffffffffffffffffff166117d46111d2565b73ffffffffffffffffffffffffffffffffffffffff161461182a576040517f08c379a000000000000000000000000000000000000000000000000000000000815260040161182190613c8c565b60405180910390fd5b600d5481111561186f576040517f08c379a000000000000000000000000000000000000000000000000000000000815260040161186690613c6c565b60405180910390fd5b60006118796109bf565b905060005b828110156118ae5761189b8482846118969190613e94565b6120ad565b80806118a690614091565b91505061187e565b5081600d60008282546118c19190613f75565b92505081905550505050565b6000600560008473ffffffffffffffffffffffffffffffffffffffff1673ffffffffffffffffffffffffffffffffffffffff16815260200190815260200160002060008373ffffffffffffffffffffffffffffffffffffffff1673ffffffffffffffffffffffffffffffffffffffff16815260200190815260200160002060009054906101000a900460ff16905092915050565b600e60009054906101000a900460ff1681565b61271081565b611982611bc0565b73ffffffffffffffffffffffffffffffffffffffff166119a06111d2565b73ffffffffffffffffffffffffffffffffffffffff16146119f6576040517f08c379a00000000000000000000000000000000000000000000000000000000081526004016119ed90613c8c565b60405180910390fd5b600073ffffffffffffffffffffffffffffffffffffffff168173ffffffffffffffffffffffffffffffffffffffff161415611a66576040517f08c379a0000000000000000000000000000000000000000000000000000000008152600401611a5d90613acc565b60405180910390fd5b611a6f81611fbb565b50565b60007f80ac58cd000000000000000000000000000000000000000000000000000000007bffffffffffffffffffffffffffffffffffffffffffffffffffffffff1916827bffffffffffffffffffffffffffffffffffffffffffffffffffffffff19161480611b3d57507f5b5e139f000000000000000000000000000000000000000000000000000000007bffffffffffffffffffffffffffffffffffffffffffffffffffffffff1916827bffffffffffffffffffffffffffffffffffffffffffffffffffffffff1916145b80611b4d5750611b4c826122d4565b5b9050919050565b60008073ffffffffffffffffffffffffffffffffffffffff166002600084815260200190815260200160002060009054906101000a900473ffffffffffffffffffffffffffffffffffffffff1673ffffffffffffffffffffffffffffffffffffffff1614159050919050565b600033905090565b816004600083815260200190815260200160002060006101000a81548173ffffffffffffffffffffffffffffffffffffffff021916908373ffffffffffffffffffffffffffffffffffffffff160217905550808273ffffffffffffffffffffffffffffffffffffffff16611c3b83610cd1565b73ffffffffffffffffffffffffffffffffffffffff167f8c5be1e5ebec7d5bd14f71427d1e84f3dd0314c0f7b2291e5b200ac8c7c3b92560405160405180910390a45050565b6000611c8c82611b54565b611ccb576040517f08c379a0000000000000000000000000000000000000000000000000000000008152600401611cc290613b6c565b60405180910390fd5b6000611cd683610cd1565b90508073ffffffffffffffffffffffffffffffffffffffff168473ffffffffffffffffffffffffffffffffffffffff161480611d4557508373ffffffffffffffffffffffffffffffffffffffff16611d2d84610822565b73ffffffffffffffffffffffffffffffffffffffff16145b80611d565750611d5581856118cd565b5b91505092915050565b8273ffffffffffffffffffffffffffffffffffffffff16611d7f82610cd1565b73ffffffffffffffffffffffffffffffffffffffff1614611dd5576040517f08c379a0000000000000000000000000000000000000000000000000000000008152600401611dcc90613ccc565b60405180910390fd5b600073ffffffffffffffffffffffffffffffffffffffff168273ffffffffffffffffffffffffffffffffffffffff161415611e45576040517f08c379a0000000000000000000000000000000000000000000000000000000008152600401611e3c90613b0c565b60405180910390fd5b611e5083838361233e565b611e5b600082611bc8565b6001600360008573ffffffffffffffffffffffffffffffffffffffff1673ffffffffffffffffffffffffffffffffffffffff1681526020019081526020016000206000828254611eab9190613f75565b925050819055506001600360008473ffffffffffffffffffffffffffffffffffffffff1673ffffffffffffffffffffffffffffffffffffffff1681526020019081526020016000206000828254611f029190613e94565b92505081905550816002600083815260200190815260200160002060006101000a81548173ffffffffffffffffffffffffffffffffffffffff021916908373ffffffffffffffffffffffffffffffffffffffff160217905550808273ffffffffffffffffffffffffffffffffffffffff168473ffffffffffffffffffffffffffffffffffffffff167fddf252ad1be2c89b69c2b068fc378daa952ba7f163c4a11628f55a4df523b3ef60405160405180910390a4505050565b6000600a60009054906101000a900473ffffffffffffffffffffffffffffffffffffffff16905081600a60006101000a81548173ffffffffffffffffffffffffffffffffffffffff021916908373ffffffffffffffffffffffffffffffffffffffff1602179055508173ffffffffffffffffffffffffffffffffffffffff168173ffffffffffffffffffffffffffffffffffffffff167f8be0079c531659141344cd1fd0a4f28419497f9722a3daafe3b4186f6b6457e060405160405180910390a35050565b6000818361208f9190613e94565b905092915050565b600081836120a59190613f1b565b905092915050565b6120c7828260405180602001604052806000815250612452565b5050565b6120d6848484611d5f565b6120e2848484846124ad565b612121576040517f08c379a000000000000000000000000000000000000000000000000000000000815260040161211890613aac565b60405180910390fd5b50505050565b6060600082141561216f576040518060400160405280600181526020017f300000000000000000000000000000000000000000000000000000000000000081525090506122cf565b600082905060005b600082146121a157808061218a90614091565b915050600a8261219a9190613eea565b9150612177565b60008167ffffffffffffffff8111156121e3577f4e487b7100000000000000000000000000000000000000000000000000000000600052604160045260246000fd5b6040519080825280601f01601f1916602001820160405280156122155781602001600182028036833780820191505090505b5090505b600085146122c85760018261222e9190613f75565b9150600a8561223d91906140da565b60306122499190613e94565b60f81b818381518110612285577f4e487b7100000000000000000000000000000000000000000000000000000000600052603260045260246000fd5b60200101907effffffffffffffffffffffffffffffffffffffffffffffffffffffffffffff1916908160001a905350600a856122c19190613eea565b9450612219565b8093505050505b919050565b60007f01ffc9a7000000000000000000000000000000000000000000000000000000007bffffffffffffffffffffffffffffffffffffffffffffffffffffffff1916827bffffffffffffffffffffffffffffffffffffffffffffffffffffffff1916149050919050565b612349838383612644565b600073ffffffffffffffffffffffffffffffffffffffff168373ffffffffffffffffffffffffffffffffffffffff16141561238c5761238781612649565b6123cb565b8173ffffffffffffffffffffffffffffffffffffffff168373ffffffffffffffffffffffffffffffffffffffff16146123ca576123c98382612692565b5b5b600073ffffffffffffffffffffffffffffffffffffffff168273ffffffffffffffffffffffffffffffffffffffff16141561240e57612409816127ff565b61244d565b8273ffffffffffffffffffffffffffffffffffffffff168273ffffffffffffffffffffffffffffffffffffffff161461244c5761244b8282612942565b5b5b505050565b61245c83836129c1565b61246960008484846124ad565b6124a8576040517f08c379a000000000000000000000000000000000000000000000000000000000815260040161249f90613aac565b60405180910390fd5b505050565b60006124ce8473ffffffffffffffffffffffffffffffffffffffff16612b8f565b15612637578373ffffffffffffffffffffffffffffffffffffffff1663150b7a026124f7611bc0565b8786866040518563ffffffff1660e01b815260040161251994939291906139e1565b602060405180830381600087803b15801561253357600080fd5b505af192505050801561256457506040513d601f19601f820116820180604052508101906125619190612f4e565b60015b6125e7573d8060008114612594576040519150601f19603f3d011682016040523d82523d6000602084013e612599565b606091505b506000815114156125df576040517f08c379a00000000000000000000000000000000000000000000000000000000081526004016125d690613aac565b60405180910390fd5b805181602001fd5b63150b7a0260e01b7bffffffffffffffffffffffffffffffffffffffffffffffffffffffff1916817bffffffffffffffffffffffffffffffffffffffffffffffffffffffff19161491505061263c565b600190505b949350505050565b505050565b6008805490506009600083815260200190815260200160002081905550600881908060018154018082558091505060019003906000526020600020016000909190919091505550565b6000600161269f84610d83565b6126a99190613f75565b905060006007600084815260200190815260200160002054905081811461278e576000600660008673ffffffffffffffffffffffffffffffffffffffff1673ffffffffffffffffffffffffffffffffffffffff168152602001908152602001600020600084815260200190815260200160002054905080600660008773ffffffffffffffffffffffffffffffffffffffff1673ffffffffffffffffffffffffffffffffffffffff168152602001908152602001600020600084815260200190815260200160002081905550816007600083815260200190815260200160002081905550505b6007600084815260200190815260200160002060009055600660008573ffffffffffffffffffffffffffffffffffffffff1673ffffffffffffffffffffffffffffffffffffffff16815260200190815260200160002060008381526020019081526020016000206000905550505050565b600060016008805490506128139190613f75565b9050600060096000848152602001908152602001600020549050600060088381548110612869577f4e487b7100000000000000000000000000000000000000000000000000000000600052603260045260246000fd5b9060005260206000200154905080600883815481106128b1577f4e487b7100000000000000000000000000000000000000000000000000000000600052603260045260246000fd5b906000526020600020018190555081600960008381526020019081526020016000208190555060096000858152602001908152602001600020600090556008805480612926577f4e487b7100000000000000000000000000000000000000000000000000000000600052603160045260246000fd5b6001900381819060005260206000200160009055905550505050565b600061294d83610d83565b905081600660008573ffffffffffffffffffffffffffffffffffffffff1673ffffffffffffffffffffffffffffffffffffffff168152602001908152602001600020600083815260200190815260200160002081905550806007600084815260200190815260200160002081905550505050565b600073ffffffffffffffffffffffffffffffffffffffff168273ffffffffffffffffffffffffffffffffffffffff161415612a31576040517f08c379a0000000000000000000000000000000000000000000000000000000008152600401612a2890613c2c565b60405180910390fd5b612a3a81611b54565b15612a7a576040517f08c379a0000000000000000000000000000000000000000000000000000000008152600401612a7190613aec565b60405180910390fd5b612a866000838361233e565b6001600360008473ffffffffffffffffffffffffffffffffffffffff1673ffffffffffffffffffffffffffffffffffffffff1681526020019081526020016000206000828254612ad69190613e94565b92505081905550816002600083815260200190815260200160002060006101000a81548173ffffffffffffffffffffffffffffffffffffffff021916908373ffffffffffffffffffffffffffffffffffffffff160217905550808273ffffffffffffffffffffffffffffffffffffffff16600073ffffffffffffffffffffffffffffffffffffffff167fddf252ad1be2c89b69c2b068fc378daa952ba7f163c4a11628f55a4df523b3ef60405160405180910390a45050565b600080823b905060008111915050919050565b828054612bae9061405f565b90600052602060002090601f016020900481019282612bd05760008555612c17565b82601f10612be957805160ff1916838001178555612c17565b82800160010185558215612c17579182015b82811115612c16578251825591602001919060010190612bfb565b5b509050612c249190612c28565b5090565b5b80821115612c41576000816000905550600101612c29565b5090565b6000612c58612c5384613db8565b613d87565b905082815260208101848484011115612c7057600080fd5b612c7b84828561401d565b509392505050565b6000612c96612c9184613de8565b613d87565b905082815260208101848484011115612cae57600080fd5b612cb984828561401d565b509392505050565b600081359050612cd0816141d8565b92915050565b600081359050612ce5816141ef565b92915050565b600081359050612cfa81614206565b92915050565b600081519050612d0f81614206565b92915050565b600082601f830112612d2657600080fd5b8135612d36848260208601612c45565b91505092915050565b600082601f830112612d5057600080fd5b8135612d60848260208601612c83565b91505092915050565b600081359050612d788161421d565b92915050565b600060208284031215612d9057600080fd5b6000612d9e84828501612cc1565b91505092915050565b60008060408385031215612dba57600080fd5b6000612dc885828601612cc1565b9250506020612dd985828601612cc1565b9150509250929050565b600080600060608486031215612df857600080fd5b6000612e0686828701612cc1565b9350506020612e1786828701612cc1565b9250506040612e2886828701612d69565b9150509250925092565b60008060008060808587031215612e4857600080fd5b6000612e5687828801612cc1565b9450506020612e6787828801612cc1565b9350506040612e7887828801612d69565b925050606085013567ffffffffffffffff811115612e9557600080fd5b612ea187828801612d15565b91505092959194509250565b60008060408385031215612ec057600080fd5b6000612ece85828601612cc1565b9250506020612edf85828601612cd6565b9150509250929050565b60008060408385031215612efc57600080fd5b6000612f0a85828601612cc1565b9250506020612f1b85828601612d69565b9150509250929050565b600060208284031215612f3757600080fd5b6000612f4584828501612ceb565b91505092915050565b600060208284031215612f6057600080fd5b6000612f6e84828501612d00565b91505092915050565b600060208284031215612f8957600080fd5b600082013567ffffffffffffffff811115612fa357600080fd5b612faf84828501612d3f565b91505092915050565b600060208284031215612fca57600080fd5b6000612fd884828501612d69565b91505092915050565b6000612fed8383613984565b60208301905092915050565b61300281613fa9565b82525050565b600061301382613e28565b61301d8185613e56565b935061302883613e18565b8060005b838110156130595781516130408882612fe1565b975061304b83613e49565b92505060018101905061302c565b5085935050505092915050565b61306f81613fbb565b82525050565b600061308082613e33565b61308a8185613e67565b935061309a81856020860161402c565b6130a3816141c7565b840191505092915050565b60006130b982613e3e565b6130c38185613e78565b93506130d381856020860161402c565b6130dc816141c7565b840191505092915050565b60006130f282613e3e565b6130fc8185613e89565b935061310c81856020860161402c565b80840191505092915050565b6000613125602b83613e78565b91507f455243373231456e756d657261626c653a206f776e657220696e646578206f7560008301527f74206f6620626f756e64730000000000000000000000000000000000000000006020830152604082019050919050565b600061318b603283613e78565b91507f4552433732313a207472616e7366657220746f206e6f6e20455243373231526560008301527f63656976657220696d706c656d656e74657200000000000000000000000000006020830152604082019050919050565b60006131f1602683613e78565b91507f4f776e61626c653a206e6577206f776e657220697320746865207a65726f206160008301527f64647265737300000000000000000000000000000000000000000000000000006020830152604082019050919050565b6000613257601c83613e78565b91507f4552433732313a20746f6b656e20616c7265616479206d696e746564000000006000830152602082019050919050565b6000613297602483613e78565b91507f4552433732313a207472616e7366657220746f20746865207a65726f2061646460008301527f72657373000000000000000000000000000000000000000000000000000000006020830152604082019050919050565b60006132fd601983613e78565b91507f4552433732313a20617070726f766520746f2063616c6c6572000000000000006000830152602082019050919050565b600061333d601f83613e78565b91507f45746865722076616c75652073656e74206973206e6f7420636f7272656374006000830152602082019050919050565b600061337d602c83613e78565b91507f4552433732313a206f70657261746f7220717565727920666f72206e6f6e657860008301527f697374656e7420746f6b656e00000000000000000000000000000000000000006020830152604082019050919050565b60006133e3603883613e78565b91507f4552433732313a20617070726f76652063616c6c6572206973206e6f74206f7760008301527f6e6572206e6f7220617070726f76656420666f7220616c6c00000000000000006020830152604082019050919050565b6000613449602a83613e78565b91507f4552433732313a2062616c616e636520717565727920666f7220746865207a6560008301527f726f2061646472657373000000000000000000000000000000000000000000006020830152604082019050919050565b60006134af602983613e78565b91507f4552433732313a206f776e657220717565727920666f72206e6f6e657869737460008301527f656e7420746f6b656e00000000000000000000000000000000000000000000006020830152604082019050919050565b6000613515602183613e78565b91507f43616e206f6e6c79206d696e7420323520746f6b656e7320617420612074696d60008301527f65000000000000000000000000000000000000000000000000000000000000006020830152604082019050919050565b600061357b602683613e78565b91507f53616c65206d7573742062652061637469766520746f206d696e74204465766560008301527f6c6f7065727300000000000000000000000000000000000000000000000000006020830152604082019050919050565b60006135e1602083613e78565b91507f4552433732313a206d696e7420746f20746865207a65726f20616464726573736000830152602082019050919050565b6000613621602c83613e78565b91507f4552433732313a20617070726f76656420717565727920666f72206e6f6e657860008301527f697374656e7420746f6b656e00000000000000000000000000000000000000006020830152604082019050919050565b6000613687602183613e78565b91507f4578636565647320726573657276656420646576656c6f70657220737570706c60008301527f79000000000000000000000000000000000000000000000000000000000000006020830152604082019050919050565b60006136ed602083613e78565b91507f4f776e61626c653a2063616c6c6572206973206e6f7420746865206f776e65726000830152602082019050919050565b600061372d602e83613e78565b91507f507572636861736520776f756c6420657863656564206d617820737570706c7960008301527f206f6620446576656c6f706572730000000000000000000000000000000000006020830152604082019050919050565b6000613793602983613e78565b91507f4552433732313a207472616e73666572206f6620746f6b656e2074686174206960008301527f73206e6f74206f776e00000000000000000000000000000000000000000000006020830152604082019050919050565b60006137f9602f83613e78565b91507f4552433732314d657461646174613a2055524920717565727920666f72206e6f60008301527f6e6578697374656e7420746f6b656e00000000000000000000000000000000006020830152604082019050919050565b600061385f602183613e78565b91507f4552433732313a20617070726f76616c20746f2063757272656e74206f776e6560008301527f72000000000000000000000000000000000000000000000000000000000000006020830152604082019050919050565b60006138c5603183613e78565b91507f4552433732313a207472616e736665722063616c6c6572206973206e6f74206f60008301527f776e6572206e6f7220617070726f7665640000000000000000000000000000006020830152604082019050919050565b600061392b602c83613e78565b91507f455243373231456e756d657261626c653a20676c6f62616c20696e646578206f60008301527f7574206f6620626f756e647300000000000000000000000000000000000000006020830152604082019050919050565b61398d81614013565b82525050565b61399c81614013565b82525050565b60006139ae82856130e7565b91506139ba82846130e7565b91508190509392505050565b60006020820190506139db6000830184612ff9565b92915050565b60006080820190506139f66000830187612ff9565b613a036020830186612ff9565b613a106040830185613993565b8181036060830152613a228184613075565b905095945050505050565b60006020820190508181036000830152613a478184613008565b905092915050565b6000602082019050613a646000830184613066565b92915050565b60006020820190508181036000830152613a8481846130ae565b905092915050565b60006020820190508181036000830152613aa581613118565b9050919050565b60006020820190508181036000830152613ac58161317e565b9050919050565b60006020820190508181036000830152613ae5816131e4565b9050919050565b60006020820190508181036000830152613b058161324a565b9050919050565b60006020820190508181036000830152613b258161328a565b9050919050565b60006020820190508181036000830152613b45816132f0565b9050919050565b60006020820190508181036000830152613b6581613330565b9050919050565b60006020820190508181036000830152613b8581613370565b9050919050565b60006020820190508181036000830152613ba5816133d6565b9050919050565b60006020820190508181036000830152613bc58161343c565b9050919050565b60006020820190508181036000830152613be5816134a2565b9050919050565b60006020820190508181036000830152613c0581613508565b9050919050565b60006020820190508181036000830152613c258161356e565b9050919050565b60006020820190508181036000830152613c45816135d4565b9050919050565b60006020820190508181036000830152613c6581613614565b9050919050565b60006020820190508181036000830152613c858161367a565b9050919050565b60006020820190508181036000830152613ca5816136e0565b9050919050565b60006020820190508181036000830152613cc581613720565b9050919050565b60006020820190508181036000830152613ce581613786565b9050919050565b60006020820190508181036000830152613d05816137ec565b9050919050565b60006020820190508181036000830152613d2581613852565b9050919050565b60006020820190508181036000830152613d45816138b8565b9050919050565b60006020820190508181036000830152613d658161391e565b9050919050565b6000602082019050613d816000830184613993565b92915050565b6000604051905081810181811067ffffffffffffffff82111715613dae57613dad614198565b5b8060405250919050565b600067ffffffffffffffff821115613dd357613dd2614198565b5b601f19601f8301169050602081019050919050565b600067ffffffffffffffff821115613e0357613e02614198565b5b601f19601f8301169050602081019050919050565b6000819050602082019050919050565b600081519050919050565b600081519050919050565b600081519050919050565b6000602082019050919050565b600082825260208201905092915050565b600082825260208201905092915050565b600082825260208201905092915050565b600081905092915050565b6000613e9f82614013565b9150613eaa83614013565b9250827fffffffffffffffffffffffffffffffffffffffffffffffffffffffffffffffff03821115613edf57613ede61410b565b5b828201905092915050565b6000613ef582614013565b9150613f0083614013565b925082613f1057613f0f61413a565b5b828204905092915050565b6000613f2682614013565b9150613f3183614013565b9250817fffffffffffffffffffffffffffffffffffffffffffffffffffffffffffffffff0483118215151615613f6a57613f6961410b565b5b828202905092915050565b6000613f8082614013565b9150613f8b83614013565b925082821015613f9e57613f9d61410b565b5b828203905092915050565b6000613fb482613ff3565b9050919050565b60008115159050919050565b60007fffffffff0000000000000000000000000000000000000000000000000000000082169050919050565b600073ffffffffffffffffffffffffffffffffffffffff82169050919050565b6000819050919050565b82818337600083830152505050565b60005b8381101561404a57808201518184015260208101905061402f565b83811115614059576000848401525b50505050565b6000600282049050600182168061407757607f821691505b6020821081141561408b5761408a614169565b5b50919050565b600061409c82614013565b91507fffffffffffffffffffffffffffffffffffffffffffffffffffffffffffffffff8214156140cf576140ce61410b565b5b600182019050919050565b60006140e582614013565b91506140f083614013565b925082614100576140ff61413a565b5b828206905092915050565b7f4e487b7100000000000000000000000000000000000000000000000000000000600052601160045260246000fd5b7f4e487b7100000000000000000000000000000000000000000000000000000000600052601260045260246000fd5b7f4e487b7100000000000000000000000000000000000000000000000000000000600052602260045260246000fd5b7f4e487b7100000000000000000000000000000000000000000000000000000000600052604160045260246000fd5b6000601f19601f8301169050919050565b6141e181613fa9565b81146141ec57600080fd5b50565b6141f881613fbb565b811461420357600080fd5b50565b61420f81613fc7565b811461421a57600080fd5b50565b61422681614013565b811461423157600080fd5b5056fea26469706673582212200540a31ed23c1381228e6c685afd5f841b836dfeec22eb32965bcde716f617a864736f6c6343000800003368747470733a2f2f6b727970746f646576656c6f706572732e76657263656c2e6170702f6170692f",
  "immutableReferences": {},
  "source": "// SPDX-License-Identifier: MIT\npragma solidity ^0.8.0;\n\nimport \"@openzeppelin/contracts/token/ERC721/extensions/ERC721Enumerable.sol\";\nimport \"@openzeppelin/contracts/access/Ownable.sol\";\nimport \"@openzeppelin/contracts/utils/math/SafeMath.sol\";\n\ncontract KryptoDevelopers is ERC721Enumerable, Ownable {\n    using SafeMath for uint256;\n    using Strings for uint256;\n\n    mapping(string => bool) _developerExists;\n\n    string public developersBaseURI;\n\n    uint256 private _reserved = 500;\n\n    bool public saleIsActive = false;\n\n    uint256 public constant MAX_MINT_QUANTITY = 25;\n\n    uint256 public constant MAX_DEVELOPERS = 10000;\n\n    uint256 public constant developerPrice = 2000000000000000; // 0.002 ETH\n\n    // withdraw addresses\n    address t1 = 0x4bd9736f70CbC26B8A0daC95d17aaca4bAEda360; // ETB Project\n    address t2 = 0x869a4f9DE3E127D7Ae60f51E8cB86ABDF6ADe5B4; // Gustavo\n    address t3 = 0x5A3ba050b8fD4cbBa0F0b10eA656EDC68E4A91e2; // Renan\n    address t4 = 0xa840Fd4343A783aECC294e6f6eeD885B85fCA5c9; // Marcelo\n\n    constructor() ERC721(\"KryptoDevelopers\", \"KDEV\") {\n        developersBaseURI = \"https://kryptodevelopers.vercel.app/api/\";\n    }\n\n    function flipSaleState() public onlyOwner {\n        saleIsActive = !saleIsActive;\n    }\n\n    function mint(uint256 quantity) public payable {\n        require(saleIsActive, \"Sale must be active to mint Developers\");\n        require(\n            quantity > 0 && quantity <= MAX_MINT_QUANTITY,\n            \"Can only mint 25 tokens at a time\"\n        );\n        require(\n            totalSupply().add(quantity) <= MAX_DEVELOPERS,\n            \"Purchase would exceed max supply of Developers\"\n        );\n        require(\n            msg.value >= developerPrice.mul(quantity),\n            \"Ether value sent is not correct\"\n        );\n\n        for (uint256 i = 0; i < quantity; i++) {\n            uint256 mintIndex = totalSupply();\n            if (totalSupply() < MAX_DEVELOPERS) {\n                _safeMint(msg.sender, mintIndex);\n            }\n        }\n    }\n\n    function setBaseURI(string memory baseURI_) external onlyOwner {\n        developersBaseURI = baseURI_;\n    }\n\n    function tokenURI(uint256 tokenId)\n        public\n        view\n        virtual\n        override\n        returns (string memory)\n    {\n        require(\n            _exists(tokenId),\n            \"ERC721Metadata: URI query for nonexistent token\"\n        );\n        string memory base = developersBaseURI;\n        return string(abi.encodePacked(base, tokenId.toString()));\n    }\n\n    function tokensOfOwner(address owner)\n        public\n        view\n        returns (uint256[] memory)\n    {\n        uint256 count = balanceOf(owner);\n        uint256[] memory ids = new uint256[](count);\n        for (uint256 i = 0; i < count; i++) {\n            ids[i] = tokenOfOwnerByIndex(owner, i);\n        }\n        return ids;\n    }\n\n    function withdrawAll() public payable onlyOwner {\n        uint256 _each = address(this).balance / 4;\n        require(payable(t1).send(_each));\n        require(payable(t2).send(_each));\n        require(payable(t3).send(_each));\n        require(payable(t4).send(_each));\n    }\n\n    function giveAway(address _to, uint256 _amount) external onlyOwner {\n        require(_amount <= _reserved, \"Exceeds reserved developer supply\");\n\n        uint256 supply = totalSupply();\n        for (uint256 i; i < _amount; i++) {\n            _safeMint(_to, supply + i);\n        }\n\n        _reserved -= _amount;\n    }\n}\n",
  "sourcePath": "/home/teixeira/repositories/kryptodevelopers/contract/contracts/KryptoDevelopers.sol",
  "compiler": {
    "name": "solc",
    "version": "0.8.0+commit.c7dfd78e.Emscripten.clang"
  },
  "schemaVersion": "3.4.3",
  "updatedAt": "2021-11-02T20:05:38.674Z",
  "networkType": "ethereum",
  "devdoc": {
    "kind": "dev",
    "methods": {
      "approve(address,uint256)": {
        "details": "See {IERC721-approve}."
      },
      "balanceOf(address)": {
        "details": "See {IERC721-balanceOf}."
      },
      "getApproved(uint256)": {
        "details": "See {IERC721-getApproved}."
      },
      "isApprovedForAll(address,address)": {
        "details": "See {IERC721-isApprovedForAll}."
      },
      "name()": {
        "details": "See {IERC721Metadata-name}."
      },
      "owner()": {
        "details": "Returns the address of the current owner."
      },
      "ownerOf(uint256)": {
        "details": "See {IERC721-ownerOf}."
      },
      "renounceOwnership()": {
        "details": "Leaves the contract without owner. It will not be possible to call `onlyOwner` functions anymore. Can only be called by the current owner. NOTE: Renouncing ownership will leave the contract without an owner, thereby removing any functionality that is only available to the owner."
      },
      "safeTransferFrom(address,address,uint256)": {
        "details": "See {IERC721-safeTransferFrom}."
      },
      "safeTransferFrom(address,address,uint256,bytes)": {
        "details": "See {IERC721-safeTransferFrom}."
      },
      "setApprovalForAll(address,bool)": {
        "details": "See {IERC721-setApprovalForAll}."
      },
      "supportsInterface(bytes4)": {
        "details": "See {IERC165-supportsInterface}."
      },
      "symbol()": {
        "details": "See {IERC721Metadata-symbol}."
      },
      "tokenByIndex(uint256)": {
        "details": "See {IERC721Enumerable-tokenByIndex}."
      },
      "tokenOfOwnerByIndex(address,uint256)": {
        "details": "See {IERC721Enumerable-tokenOfOwnerByIndex}."
      },
      "tokenURI(uint256)": {
        "details": "See {IERC721Metadata-tokenURI}."
      },
      "totalSupply()": {
        "details": "See {IERC721Enumerable-totalSupply}."
      },
      "transferFrom(address,address,uint256)": {
        "details": "See {IERC721-transferFrom}."
      },
      "transferOwnership(address)": {
        "details": "Transfers ownership of the contract to a new account (`newOwner`). Can only be called by the current owner."
      }
    },
    "version": 1
  },
  "userdoc": {
    "kind": "user",
    "methods": {},
    "version": 1
  }
}