{
  "contractName": "KryptoDevelopers",
  "abi": [
    {
      "inputs": [],
      "stateMutability": "nonpayable",
      "type": "constructor"
    },
    {
      "anonymous": false,
      "inputs": [
        {
          "indexed": true,
          "internalType": "address",
          "name": "owner",
          "type": "address"
        },
        {
          "indexed": true,
          "internalType": "address",
          "name": "approved",
          "type": "address"
        },
        {
          "indexed": true,
          "internalType": "uint256",
          "name": "tokenId",
          "type": "uint256"
        }
      ],
      "name": "Approval",
      "type": "event"
    },
    {
      "anonymous": false,
      "inputs": [
        {
          "indexed": true,
          "internalType": "address",
          "name": "owner",
          "type": "address"
        },
        {
          "indexed": true,
          "internalType": "address",
          "name": "operator",
          "type": "address"
        },
        {
          "indexed": false,
          "internalType": "bool",
          "name": "approved",
          "type": "bool"
        }
      ],
      "name": "ApprovalForAll",
      "type": "event"
    },
    {
      "anonymous": false,
      "inputs": [
        {
          "indexed": true,
          "internalType": "address",
          "name": "previousOwner",
          "type": "address"
        },
        {
          "indexed": true,
          "internalType": "address",
          "name": "newOwner",
          "type": "address"
        }
      ],
      "name": "OwnershipTransferred",
      "type": "event"
    },
    {
      "anonymous": false,
      "inputs": [
        {
          "indexed": true,
          "internalType": "address",
          "name": "from",
          "type": "address"
        },
        {
          "indexed": true,
          "internalType": "address",
          "name": "to",
          "type": "address"
        },
        {
          "indexed": true,
          "internalType": "uint256",
          "name": "tokenId",
          "type": "uint256"
        }
      ],
      "name": "Transfer",
      "type": "event"
    },
    {
      "inputs": [],
      "name": "MAX_DEVELOPERS",
      "outputs": [
        {
          "internalType": "uint256",
          "name": "",
          "type": "uint256"
        }
      ],
      "stateMutability": "view",
      "type": "function"
    },
    {
      "inputs": [],
      "name": "MAX_MINT_QUANTITY",
      "outputs": [
        {
          "internalType": "uint256",
          "name": "",
          "type": "uint256"
        }
      ],
      "stateMutability": "view",
      "type": "function"
    },
    {
      "inputs": [
        {
          "internalType": "address",
          "name": "to",
          "type": "address"
        },
        {
          "internalType": "uint256",
          "name": "tokenId",
          "type": "uint256"
        }
      ],
      "name": "approve",
      "outputs": [],
      "stateMutability": "nonpayable",
      "type": "function"
    },
    {
      "inputs": [
        {
          "internalType": "address",
          "name": "owner",
          "type": "address"
        }
      ],
      "name": "balanceOf",
      "outputs": [
        {
          "internalType": "uint256",
          "name": "",
          "type": "uint256"
        }
      ],
      "stateMutability": "view",
      "type": "function"
    },
    {
      "inputs": [],
      "name": "developerPrice",
      "outputs": [
        {
          "internalType": "uint256",
          "name": "",
          "type": "uint256"
        }
      ],
      "stateMutability": "view",
      "type": "function"
    },
    {
      "inputs": [
        {
          "internalType": "uint256",
          "name": "tokenId",
          "type": "uint256"
        }
      ],
      "name": "getApproved",
      "outputs": [
        {
          "internalType": "address",
          "name": "",
          "type": "address"
        }
      ],
      "stateMutability": "view",
      "type": "function"
    },
    {
      "inputs": [
        {
          "internalType": "address",
          "name": "owner",
          "type": "address"
        },
        {
          "internalType": "address",
          "name": "operator",
          "type": "address"
        }
      ],
      "name": "isApprovedForAll",
      "outputs": [
        {
          "internalType": "bool",
          "name": "",
          "type": "bool"
        }
      ],
      "stateMutability": "view",
      "type": "function"
    },
    {
      "inputs": [],
      "name": "mergeIsActive",
      "outputs": [
        {
          "internalType": "bool",
          "name": "",
          "type": "bool"
        }
      ],
      "stateMutability": "view",
      "type": "function"
    },
    {
      "inputs": [],
      "name": "name",
      "outputs": [
        {
          "internalType": "string",
          "name": "",
          "type": "string"
        }
      ],
      "stateMutability": "view",
      "type": "function"
    },
    {
      "inputs": [],
      "name": "owner",
      "outputs": [
        {
          "internalType": "address",
          "name": "",
          "type": "address"
        }
      ],
      "stateMutability": "view",
      "type": "function"
    },
    {
      "inputs": [
        {
          "internalType": "uint256",
          "name": "tokenId",
          "type": "uint256"
        }
      ],
      "name": "ownerOf",
      "outputs": [
        {
          "internalType": "address",
          "name": "",
          "type": "address"
        }
      ],
      "stateMutability": "view",
      "type": "function"
    },
    {
      "inputs": [],
      "name": "renounceOwnership",
      "outputs": [],
      "stateMutability": "nonpayable",
      "type": "function"
    },
    {
      "inputs": [
        {
          "internalType": "address",
          "name": "from",
          "type": "address"
        },
        {
          "internalType": "address",
          "name": "to",
          "type": "address"
        },
        {
          "internalType": "uint256",
          "name": "tokenId",
          "type": "uint256"
        }
      ],
      "name": "safeTransferFrom",
      "outputs": [],
      "stateMutability": "nonpayable",
      "type": "function"
    },
    {
      "inputs": [
        {
          "internalType": "address",
          "name": "from",
          "type": "address"
        },
        {
          "internalType": "address",
          "name": "to",
          "type": "address"
        },
        {
          "internalType": "uint256",
          "name": "tokenId",
          "type": "uint256"
        },
        {
          "internalType": "bytes",
          "name": "_data",
          "type": "bytes"
        }
      ],
      "name": "safeTransferFrom",
      "outputs": [],
      "stateMutability": "nonpayable",
      "type": "function"
    },
    {
      "inputs": [],
      "name": "saleIsActive",
      "outputs": [
        {
          "internalType": "bool",
          "name": "",
          "type": "bool"
        }
      ],
      "stateMutability": "view",
      "type": "function"
    },
    {
      "inputs": [
        {
          "internalType": "address",
          "name": "operator",
          "type": "address"
        },
        {
          "internalType": "bool",
          "name": "approved",
          "type": "bool"
        }
      ],
      "name": "setApprovalForAll",
      "outputs": [],
      "stateMutability": "nonpayable",
      "type": "function"
    },
    {
      "inputs": [],
      "name": "symbol",
      "outputs": [
        {
          "internalType": "string",
          "name": "",
          "type": "string"
        }
      ],
      "stateMutability": "view",
      "type": "function"
    },
    {
      "inputs": [
        {
          "internalType": "uint256",
          "name": "index",
          "type": "uint256"
        }
      ],
      "name": "tokenByIndex",
      "outputs": [
        {
          "internalType": "uint256",
          "name": "",
          "type": "uint256"
        }
      ],
      "stateMutability": "view",
      "type": "function"
    },
    {
      "inputs": [
        {
          "internalType": "address",
          "name": "owner",
          "type": "address"
        },
        {
          "internalType": "uint256",
          "name": "index",
          "type": "uint256"
        }
      ],
      "name": "tokenOfOwnerByIndex",
      "outputs": [
        {
          "internalType": "uint256",
          "name": "",
          "type": "uint256"
        }
      ],
      "stateMutability": "view",
      "type": "function"
    },
    {
      "inputs": [],
      "name": "totalSupply",
      "outputs": [
        {
          "internalType": "uint256",
          "name": "",
          "type": "uint256"
        }
      ],
      "stateMutability": "view",
      "type": "function"
    },
    {
      "inputs": [
        {
          "internalType": "address",
          "name": "from",
          "type": "address"
        },
        {
          "internalType": "address",
          "name": "to",
          "type": "address"
        },
        {
          "internalType": "uint256",
          "name": "tokenId",
          "type": "uint256"
        }
      ],
      "name": "transferFrom",
      "outputs": [],
      "stateMutability": "nonpayable",
      "type": "function"
    },
    {
      "inputs": [
        {
          "internalType": "address",
          "name": "newOwner",
          "type": "address"
        }
      ],
      "name": "transferOwnership",
      "outputs": [],
      "stateMutability": "nonpayable",
      "type": "function"
    },
    {
      "inputs": [
        {
          "internalType": "bytes4",
          "name": "interfaceId",
          "type": "bytes4"
        }
      ],
      "name": "supportsInterface",
      "outputs": [
        {
          "internalType": "bool",
          "name": "",
          "type": "bool"
        }
      ],
      "stateMutability": "view",
      "type": "function"
    },
    {
      "inputs": [],
      "name": "flipSaleState",
      "outputs": [],
      "stateMutability": "nonpayable",
      "type": "function"
    },
    {
      "inputs": [
        {
          "internalType": "uint256",
          "name": "quantity",
          "type": "uint256"
        }
      ],
      "name": "mint",
      "outputs": [],
      "stateMutability": "payable",
      "type": "function"
    },
    {
      "inputs": [
        {
          "internalType": "string",
          "name": "baseURI_",
          "type": "string"
        }
      ],
      "name": "setBaseURI",
      "outputs": [],
      "stateMutability": "nonpayable",
      "type": "function"
    },
    {
      "inputs": [
        {
          "internalType": "uint256",
          "name": "tokenId",
          "type": "uint256"
        }
      ],
      "name": "tokenURI",
      "outputs": [
        {
          "internalType": "string",
          "name": "",
          "type": "string"
        }
      ],
      "stateMutability": "view",
      "type": "function"
    },
    {
      "inputs": [
        {
          "internalType": "uint256",
          "name": "firstTokenId",
          "type": "uint256"
        },
        {
          "internalType": "uint256",
          "name": "secondTokenId",
          "type": "uint256"
        }
      ],
      "name": "mergeNFT",
      "outputs": [],
      "stateMutability": "nonpayable",
      "type": "function"
    }
  ],
  "bytecode": "0x60806040526000600d60006101000a81548160ff0219169083151502179055506000600d60016101000a81548160ff0219169083151502179055503480156200004757600080fd5b506040518060400160405280601081526020017f4b727970746f446576656c6f70657273000000000000000000000000000000008152506040518060400160405280600481526020017f4b444556000000000000000000000000000000000000000000000000000000008152508160009080519060200190620000cc929190620001dc565b508060019080519060200190620000e5929190620001dc565b50505062000108620000fc6200010e60201b60201c565b6200011660201b60201c565b620002f1565b600033905090565b6000600a60009054906101000a900473ffffffffffffffffffffffffffffffffffffffff16905081600a60006101000a81548173ffffffffffffffffffffffffffffffffffffffff021916908373ffffffffffffffffffffffffffffffffffffffff1602179055508173ffffffffffffffffffffffffffffffffffffffff168173ffffffffffffffffffffffffffffffffffffffff167f8be0079c531659141344cd1fd0a4f28419497f9722a3daafe3b4186f6b6457e060405160405180910390a35050565b828054620001ea906200028c565b90600052602060002090601f0160209004810192826200020e57600085556200025a565b82601f106200022957805160ff19168380011785556200025a565b828001600101855582156200025a579182015b82811115620002595782518255916020019190600101906200023c565b5b5090506200026991906200026d565b5090565b5b80821115620002885760008160009055506001016200026e565b5090565b60006002820490506001821680620002a557607f821691505b60208210811415620002bc57620002bb620002c2565b5b50919050565b7f4e487b7100000000000000000000000000000000000000000000000000000000600052602260045260246000fd5b613c6280620003016000396000f3fe6080604052600436106101b75760003560e01c806371273bb7116100ec578063bb95a7251161008a578063eb8d244411610064578063eb8d24441461060f578063ec78c00f1461063a578063f2fde38b14610665578063f7ee7a181461068e576101b7565b8063bb95a7251461056c578063c87b56dd14610595578063e985e9c5146105d2576101b7565b806395d89b41116100c657806395d89b41146104d3578063a0712d68146104fe578063a22cb4651461051a578063b88d4fde14610543576101b7565b806371273bb714610466578063715018a6146104915780638da5cb5b146104a8576101b7565b806334918dfd1161015957806355f804b31161013357806355f804b3146103985780635f890ddf146103c15780636352211e146103ec57806370a0823114610429576101b7565b806334918dfd1461031b57806342842e0e146103325780634f6ccce71461035b576101b7565b8063095ea7b311610195578063095ea7b31461026157806318160ddd1461028a57806323b872dd146102b55780632f745c59146102de576101b7565b806301ffc9a7146101bc57806306fdde03146101f9578063081812fc14610224575b600080fd5b3480156101c857600080fd5b506101e360048036038101906101de9190612a47565b6106b9565b6040516101f091906134a0565b60405180910390f35b34801561020557600080fd5b5061020e6106cb565b60405161021b91906134bb565b60405180910390f35b34801561023057600080fd5b5061024b60048036038101906102469190612ada565b61075d565b6040516102589190613439565b60405180910390f35b34801561026d57600080fd5b5061028860048036038101906102839190612a0b565b6107e2565b005b34801561029657600080fd5b5061029f6108fa565b6040516102ac919061379d565b60405180910390f35b3480156102c157600080fd5b506102dc60048036038101906102d79190612905565b610907565b005b3480156102ea57600080fd5b5061030560048036038101906103009190612a0b565b610967565b604051610312919061379d565b60405180910390f35b34801561032757600080fd5b50610330610a0c565b005b34801561033e57600080fd5b5061035960048036038101906103549190612905565b610ab4565b005b34801561036757600080fd5b50610382600480360381019061037d9190612ada565b610ad4565b60405161038f919061379d565b60405180910390f35b3480156103a457600080fd5b506103bf60048036038101906103ba9190612a99565b610b6b565b005b3480156103cd57600080fd5b506103d6610c01565b6040516103e3919061379d565b60405180910390f35b3480156103f857600080fd5b50610413600480360381019061040e9190612ada565b610c0c565b6040516104209190613439565b60405180910390f35b34801561043557600080fd5b50610450600480360381019061044b91906128a0565b610cbe565b60405161045d919061379d565b60405180910390f35b34801561047257600080fd5b5061047b610d76565b604051610488919061379d565b60405180910390f35b34801561049d57600080fd5b506104a6610d7b565b005b3480156104b457600080fd5b506104bd610e03565b6040516104ca9190613439565b60405180910390f35b3480156104df57600080fd5b506104e8610e2d565b6040516104f591906134bb565b60405180910390f35b61051860048036038101906105139190612ada565b610ebf565b005b34801561052657600080fd5b50610541600480360381019061053c91906129cf565b611061565b005b34801561054f57600080fd5b5061056a60048036038101906105659190612954565b6111e2565b005b34801561057857600080fd5b50610593600480360381019061058e9190612b03565b611244565b005b3480156105a157600080fd5b506105bc60048036038101906105b79190612ada565b611248565b6040516105c991906134bb565b60405180910390f35b3480156105de57600080fd5b506105f960048036038101906105f491906128c9565b611353565b60405161060691906134a0565b60405180910390f35b34801561061b57600080fd5b506106246113e7565b60405161063191906134a0565b60405180910390f35b34801561064657600080fd5b5061064f6113fa565b60405161065c919061379d565b60405180910390f35b34801561067157600080fd5b5061068c600480360381019061068791906128a0565b6113ff565b005b34801561069a57600080fd5b506106a36114f7565b6040516106b091906134a0565b60405180910390f35b60006106c48261150a565b9050919050565b6060600080546106da90613a57565b80601f016020809104026020016040519081016040528092919081815260200182805461070690613a57565b80156107535780601f1061072857610100808354040283529160200191610753565b820191906000526020600020905b81548152906001019060200180831161073657829003601f168201915b5050505050905090565b600061076882611584565b6107a7576040517f08c379a000000000000000000000000000000000000000000000000000000000815260040161079e9061369d565b60405180910390fd5b6004600083815260200190815260200160002060009054906101000a900473ffffffffffffffffffffffffffffffffffffffff169050919050565b60006107ed82610c0c565b90508073ffffffffffffffffffffffffffffffffffffffff168373ffffffffffffffffffffffffffffffffffffffff16141561085e576040517f08c379a00000000000000000000000000000000000000000000000000000000081526004016108559061373d565b60405180910390fd5b8073ffffffffffffffffffffffffffffffffffffffff1661087d6115f0565b73ffffffffffffffffffffffffffffffffffffffff1614806108ac57506108ab816108a66115f0565b611353565b5b6108eb576040517f08c379a00000000000000000000000000000000000000000000000000000000081526004016108e2906135dd565b60405180910390fd5b6108f583836115f8565b505050565b6000600880549050905090565b6109186109126115f0565b826116b1565b610957576040517f08c379a000000000000000000000000000000000000000000000000000000000815260040161094e9061375d565b60405180910390fd5b61096283838361178f565b505050565b600061097283610cbe565b82106109b3576040517f08c379a00000000000000000000000000000000000000000000000000000000081526004016109aa906134dd565b60405180910390fd5b600660008473ffffffffffffffffffffffffffffffffffffffff1673ffffffffffffffffffffffffffffffffffffffff168152602001908152602001600020600083815260200190815260200160002054905092915050565b610a146115f0565b73ffffffffffffffffffffffffffffffffffffffff16610a32610e03565b73ffffffffffffffffffffffffffffffffffffffff1614610a88576040517f08c379a0000000000000000000000000000000000000000000000000000000008152600401610a7f906136bd565b60405180910390fd5b600d60009054906101000a900460ff1615600d60006101000a81548160ff021916908315150217905550565b610acf838383604051806020016040528060008152506111e2565b505050565b6000610ade6108fa565b8210610b1f576040517f08c379a0000000000000000000000000000000000000000000000000000000008152600401610b169061377d565b60405180910390fd5b60088281548110610b59577f4e487b7100000000000000000000000000000000000000000000000000000000600052603260045260246000fd5b90600052602060002001549050919050565b610b736115f0565b73ffffffffffffffffffffffffffffffffffffffff16610b91610e03565b73ffffffffffffffffffffffffffffffffffffffff1614610be7576040517f08c379a0000000000000000000000000000000000000000000000000000000008152600401610bde906136bd565b60405180910390fd5b80600c9080519060200190610bfd9291906126c4565b5050565b6658d15e1762800081565b6000806002600084815260200190815260200160002060009054906101000a900473ffffffffffffffffffffffffffffffffffffffff169050600073ffffffffffffffffffffffffffffffffffffffff168173ffffffffffffffffffffffffffffffffffffffff161415610cb5576040517f08c379a0000000000000000000000000000000000000000000000000000000008152600401610cac9061361d565b60405180910390fd5b80915050919050565b60008073ffffffffffffffffffffffffffffffffffffffff168273ffffffffffffffffffffffffffffffffffffffff161415610d2f576040517f08c379a0000000000000000000000000000000000000000000000000000000008152600401610d26906135fd565b60405180910390fd5b600360008373ffffffffffffffffffffffffffffffffffffffff1673ffffffffffffffffffffffffffffffffffffffff168152602001908152602001600020549050919050565b601981565b610d836115f0565b73ffffffffffffffffffffffffffffffffffffffff16610da1610e03565b73ffffffffffffffffffffffffffffffffffffffff1614610df7576040517f08c379a0000000000000000000000000000000000000000000000000000000008152600401610dee906136bd565b60405180910390fd5b610e0160006119eb565b565b6000600a60009054906101000a900473ffffffffffffffffffffffffffffffffffffffff16905090565b606060018054610e3c90613a57565b80601f0160208091040260200160405190810160405280929190818152602001828054610e6890613a57565b8015610eb55780601f10610e8a57610100808354040283529160200191610eb5565b820191906000526020600020905b815481529060010190602001808311610e9857829003601f168201915b5050505050905090565b600d60009054906101000a900460ff16610f0e576040517f08c379a0000000000000000000000000000000000000000000000000000000008152600401610f059061365d565b60405180910390fd5b600081118015610f1f575060198111155b610f5e576040517f08c379a0000000000000000000000000000000000000000000000000000000008152600401610f559061363d565b60405180910390fd5b601b610f7a82610f6c6108fa565b611ab190919063ffffffff16565b1115610fbb576040517f08c379a0000000000000000000000000000000000000000000000000000000008152600401610fb2906136dd565b60405180910390fd5b610fd5816658d15e17628000611ac790919063ffffffff16565b341015611017576040517f08c379a000000000000000000000000000000000000000000000000000000000815260040161100e9061359d565b60405180910390fd5b60005b8181101561105d57600061102c6108fa565b9050601b6110386108fa565b1015611049576110483382611add565b5b50808061105590613a89565b91505061101a565b5050565b6110696115f0565b73ffffffffffffffffffffffffffffffffffffffff168273ffffffffffffffffffffffffffffffffffffffff1614156110d7576040517f08c379a00000000000000000000000000000000000000000000000000000000081526004016110ce9061357d565b60405180910390fd5b80600560006110e46115f0565b73ffffffffffffffffffffffffffffffffffffffff1673ffffffffffffffffffffffffffffffffffffffff16815260200190815260200160002060008473ffffffffffffffffffffffffffffffffffffffff1673ffffffffffffffffffffffffffffffffffffffff16815260200190815260200160002060006101000a81548160ff0219169083151502179055508173ffffffffffffffffffffffffffffffffffffffff166111916115f0565b73ffffffffffffffffffffffffffffffffffffffff167f17307eab39ab6107e8899845ad3d59bd9653f200f220920489ca2b5937696c31836040516111d691906134a0565b60405180910390a35050565b6111f36111ed6115f0565b836116b1565b611232576040517f08c379a00000000000000000000000000000000000000000000000000000000081526004016112299061375d565b60405180910390fd5b61123e84848484611afb565b50505050565b5050565b606061125382611584565b611292576040517f08c379a00000000000000000000000000000000000000000000000000000000081526004016112899061371d565b60405180910390fd5b6000600c80546112a190613a57565b80601f01602080910402602001604051908101604052809291908181526020018280546112cd90613a57565b801561131a5780601f106112ef5761010080835404028352916020019161131a565b820191906000526020600020905b8154815290600101906020018083116112fd57829003601f168201915b505050505090508061132b84611b57565b60405160200161133c929190613415565b604051602081830303815290604052915050919050565b6000600560008473ffffffffffffffffffffffffffffffffffffffff1673ffffffffffffffffffffffffffffffffffffffff16815260200190815260200160002060008373ffffffffffffffffffffffffffffffffffffffff1673ffffffffffffffffffffffffffffffffffffffff16815260200190815260200160002060009054906101000a900460ff16905092915050565b600d60009054906101000a900460ff1681565b601b81565b6114076115f0565b73ffffffffffffffffffffffffffffffffffffffff16611425610e03565b73ffffffffffffffffffffffffffffffffffffffff161461147b576040517f08c379a0000000000000000000000000000000000000000000000000000000008152600401611472906136bd565b60405180910390fd5b600073ffffffffffffffffffffffffffffffffffffffff168173ffffffffffffffffffffffffffffffffffffffff1614156114eb576040517f08c379a00000000000000000000000000000000000000000000000000000000081526004016114e29061351d565b60405180910390fd5b6114f4816119eb565b50565b600d60019054906101000a900460ff1681565b60007f780e9d63000000000000000000000000000000000000000000000000000000007bffffffffffffffffffffffffffffffffffffffffffffffffffffffff1916827bffffffffffffffffffffffffffffffffffffffffffffffffffffffff1916148061157d575061157c82611d04565b5b9050919050565b60008073ffffffffffffffffffffffffffffffffffffffff166002600084815260200190815260200160002060009054906101000a900473ffffffffffffffffffffffffffffffffffffffff1673ffffffffffffffffffffffffffffffffffffffff1614159050919050565b600033905090565b816004600083815260200190815260200160002060006101000a81548173ffffffffffffffffffffffffffffffffffffffff021916908373ffffffffffffffffffffffffffffffffffffffff160217905550808273ffffffffffffffffffffffffffffffffffffffff1661166b83610c0c565b73ffffffffffffffffffffffffffffffffffffffff167f8c5be1e5ebec7d5bd14f71427d1e84f3dd0314c0f7b2291e5b200ac8c7c3b92560405160405180910390a45050565b60006116bc82611584565b6116fb576040517f08c379a00000000000000000000000000000000000000000000000000000000081526004016116f2906135bd565b60405180910390fd5b600061170683610c0c565b90508073ffffffffffffffffffffffffffffffffffffffff168473ffffffffffffffffffffffffffffffffffffffff16148061177557508373ffffffffffffffffffffffffffffffffffffffff1661175d8461075d565b73ffffffffffffffffffffffffffffffffffffffff16145b8061178657506117858185611353565b5b91505092915050565b8273ffffffffffffffffffffffffffffffffffffffff166117af82610c0c565b73ffffffffffffffffffffffffffffffffffffffff1614611805576040517f08c379a00000000000000000000000000000000000000000000000000000000081526004016117fc906136fd565b60405180910390fd5b600073ffffffffffffffffffffffffffffffffffffffff168273ffffffffffffffffffffffffffffffffffffffff161415611875576040517f08c379a000000000000000000000000000000000000000000000000000000000815260040161186c9061355d565b60405180910390fd5b611880838383611de6565b61188b6000826115f8565b6001600360008573ffffffffffffffffffffffffffffffffffffffff1673ffffffffffffffffffffffffffffffffffffffff16815260200190815260200160002060008282546118db919061396d565b925050819055506001600360008473ffffffffffffffffffffffffffffffffffffffff1673ffffffffffffffffffffffffffffffffffffffff1681526020019081526020016000206000828254611932919061388c565b92505081905550816002600083815260200190815260200160002060006101000a81548173ffffffffffffffffffffffffffffffffffffffff021916908373ffffffffffffffffffffffffffffffffffffffff160217905550808273ffffffffffffffffffffffffffffffffffffffff168473ffffffffffffffffffffffffffffffffffffffff167fddf252ad1be2c89b69c2b068fc378daa952ba7f163c4a11628f55a4df523b3ef60405160405180910390a4505050565b6000600a60009054906101000a900473ffffffffffffffffffffffffffffffffffffffff16905081600a60006101000a81548173ffffffffffffffffffffffffffffffffffffffff021916908373ffffffffffffffffffffffffffffffffffffffff1602179055508173ffffffffffffffffffffffffffffffffffffffff168173ffffffffffffffffffffffffffffffffffffffff167f8be0079c531659141344cd1fd0a4f28419497f9722a3daafe3b4186f6b6457e060405160405180910390a35050565b60008183611abf919061388c565b905092915050565b60008183611ad59190613913565b905092915050565b611af7828260405180602001604052806000815250611df6565b5050565b611b0684848461178f565b611b1284848484611e51565b611b51576040517f08c379a0000000000000000000000000000000000000000000000000000000008152600401611b48906134fd565b60405180910390fd5b50505050565b60606000821415611b9f576040518060400160405280600181526020017f30000000000000000000000000000000000000000000000000000000000000008152509050611cff565b600082905060005b60008214611bd1578080611bba90613a89565b915050600a82611bca91906138e2565b9150611ba7565b60008167ffffffffffffffff811115611c13577f4e487b7100000000000000000000000000000000000000000000000000000000600052604160045260246000fd5b6040519080825280601f01601f191660200182016040528015611c455781602001600182028036833780820191505090505b5090505b60008514611cf857600182611c5e919061396d565b9150600a85611c6d9190613ad2565b6030611c79919061388c565b60f81b818381518110611cb5577f4e487b7100000000000000000000000000000000000000000000000000000000600052603260045260246000fd5b60200101907effffffffffffffffffffffffffffffffffffffffffffffffffffffffffffff1916908160001a905350600a85611cf191906138e2565b9450611c49565b8093505050505b919050565b60007f80ac58cd000000000000000000000000000000000000000000000000000000007bffffffffffffffffffffffffffffffffffffffffffffffffffffffff1916827bffffffffffffffffffffffffffffffffffffffffffffffffffffffff19161480611dcf57507f5b5e139f000000000000000000000000000000000000000000000000000000007bffffffffffffffffffffffffffffffffffffffffffffffffffffffff1916827bffffffffffffffffffffffffffffffffffffffffffffffffffffffff1916145b80611ddf5750611dde82611fe8565b5b9050919050565b611df1838383612052565b505050565b611e008383612166565b611e0d6000848484611e51565b611e4c576040517f08c379a0000000000000000000000000000000000000000000000000000000008152600401611e43906134fd565b60405180910390fd5b505050565b6000611e728473ffffffffffffffffffffffffffffffffffffffff16612334565b15611fdb578373ffffffffffffffffffffffffffffffffffffffff1663150b7a02611e9b6115f0565b8786866040518563ffffffff1660e01b8152600401611ebd9493929190613454565b602060405180830381600087803b158015611ed757600080fd5b505af1925050508015611f0857506040513d601f19601f82011682018060405250810190611f059190612a70565b60015b611f8b573d8060008114611f38576040519150601f19603f3d011682016040523d82523d6000602084013e611f3d565b606091505b50600081511415611f83576040517f08c379a0000000000000000000000000000000000000000000000000000000008152600401611f7a906134fd565b60405180910390fd5b805181602001fd5b63150b7a0260e01b7bffffffffffffffffffffffffffffffffffffffffffffffffffffffff1916817bffffffffffffffffffffffffffffffffffffffffffffffffffffffff191614915050611fe0565b600190505b949350505050565b60007f01ffc9a7000000000000000000000000000000000000000000000000000000007bffffffffffffffffffffffffffffffffffffffffffffffffffffffff1916827bffffffffffffffffffffffffffffffffffffffffffffffffffffffff1916149050919050565b61205d838383612347565b600073ffffffffffffffffffffffffffffffffffffffff168373ffffffffffffffffffffffffffffffffffffffff1614156120a05761209b8161234c565b6120df565b8173ffffffffffffffffffffffffffffffffffffffff168373ffffffffffffffffffffffffffffffffffffffff16146120de576120dd8382612395565b5b5b600073ffffffffffffffffffffffffffffffffffffffff168273ffffffffffffffffffffffffffffffffffffffff1614156121225761211d81612502565b612161565b8273ffffffffffffffffffffffffffffffffffffffff168273ffffffffffffffffffffffffffffffffffffffff16146121605761215f8282612645565b5b5b505050565b600073ffffffffffffffffffffffffffffffffffffffff168273ffffffffffffffffffffffffffffffffffffffff1614156121d6576040517f08c379a00000000000000000000000000000000000000000000000000000000081526004016121cd9061367d565b60405180910390fd5b6121df81611584565b1561221f576040517f08c379a00000000000000000000000000000000000000000000000000000000081526004016122169061353d565b60405180910390fd5b61222b60008383611de6565b6001600360008473ffffffffffffffffffffffffffffffffffffffff1673ffffffffffffffffffffffffffffffffffffffff168152602001908152602001600020600082825461227b919061388c565b92505081905550816002600083815260200190815260200160002060006101000a81548173ffffffffffffffffffffffffffffffffffffffff021916908373ffffffffffffffffffffffffffffffffffffffff160217905550808273ffffffffffffffffffffffffffffffffffffffff16600073ffffffffffffffffffffffffffffffffffffffff167fddf252ad1be2c89b69c2b068fc378daa952ba7f163c4a11628f55a4df523b3ef60405160405180910390a45050565b600080823b905060008111915050919050565b505050565b6008805490506009600083815260200190815260200160002081905550600881908060018154018082558091505060019003906000526020600020016000909190919091505550565b600060016123a284610cbe565b6123ac919061396d565b9050600060076000848152602001908152602001600020549050818114612491576000600660008673ffffffffffffffffffffffffffffffffffffffff1673ffffffffffffffffffffffffffffffffffffffff168152602001908152602001600020600084815260200190815260200160002054905080600660008773ffffffffffffffffffffffffffffffffffffffff1673ffffffffffffffffffffffffffffffffffffffff168152602001908152602001600020600084815260200190815260200160002081905550816007600083815260200190815260200160002081905550505b6007600084815260200190815260200160002060009055600660008573ffffffffffffffffffffffffffffffffffffffff1673ffffffffffffffffffffffffffffffffffffffff16815260200190815260200160002060008381526020019081526020016000206000905550505050565b60006001600880549050612516919061396d565b905060006009600084815260200190815260200160002054905060006008838154811061256c577f4e487b7100000000000000000000000000000000000000000000000000000000600052603260045260246000fd5b9060005260206000200154905080600883815481106125b4577f4e487b7100000000000000000000000000000000000000000000000000000000600052603260045260246000fd5b906000526020600020018190555081600960008381526020019081526020016000208190555060096000858152602001908152602001600020600090556008805480612629577f4e487b7100000000000000000000000000000000000000000000000000000000600052603160045260246000fd5b6001900381819060005260206000200160009055905550505050565b600061265083610cbe565b905081600660008573ffffffffffffffffffffffffffffffffffffffff1673ffffffffffffffffffffffffffffffffffffffff168152602001908152602001600020600083815260200190815260200160002081905550806007600084815260200190815260200160002081905550505050565b8280546126d090613a57565b90600052602060002090601f0160209004810192826126f25760008555612739565b82601f1061270b57805160ff1916838001178555612739565b82800160010185558215612739579182015b8281111561273857825182559160200191906001019061271d565b5b509050612746919061274a565b5090565b5b8082111561276357600081600090555060010161274b565b5090565b600061277a612775846137e9565b6137b8565b90508281526020810184848401111561279257600080fd5b61279d848285613a15565b509392505050565b60006127b86127b384613819565b6137b8565b9050828152602081018484840111156127d057600080fd5b6127db848285613a15565b509392505050565b6000813590506127f281613bd0565b92915050565b60008135905061280781613be7565b92915050565b60008135905061281c81613bfe565b92915050565b60008151905061283181613bfe565b92915050565b600082601f83011261284857600080fd5b8135612858848260208601612767565b91505092915050565b600082601f83011261287257600080fd5b81356128828482602086016127a5565b91505092915050565b60008135905061289a81613c15565b92915050565b6000602082840312156128b257600080fd5b60006128c0848285016127e3565b91505092915050565b600080604083850312156128dc57600080fd5b60006128ea858286016127e3565b92505060206128fb858286016127e3565b9150509250929050565b60008060006060848603121561291a57600080fd5b6000612928868287016127e3565b9350506020612939868287016127e3565b925050604061294a8682870161288b565b9150509250925092565b6000806000806080858703121561296a57600080fd5b6000612978878288016127e3565b9450506020612989878288016127e3565b935050604061299a8782880161288b565b925050606085013567ffffffffffffffff8111156129b757600080fd5b6129c387828801612837565b91505092959194509250565b600080604083850312156129e257600080fd5b60006129f0858286016127e3565b9250506020612a01858286016127f8565b9150509250929050565b60008060408385031215612a1e57600080fd5b6000612a2c858286016127e3565b9250506020612a3d8582860161288b565b9150509250929050565b600060208284031215612a5957600080fd5b6000612a678482850161280d565b91505092915050565b600060208284031215612a8257600080fd5b6000612a9084828501612822565b91505092915050565b600060208284031215612aab57600080fd5b600082013567ffffffffffffffff811115612ac557600080fd5b612ad184828501612861565b91505092915050565b600060208284031215612aec57600080fd5b6000612afa8482850161288b565b91505092915050565b60008060408385031215612b1657600080fd5b6000612b248582860161288b565b9250506020612b358582860161288b565b9150509250929050565b612b48816139a1565b82525050565b612b57816139b3565b82525050565b6000612b6882613849565b612b72818561385f565b9350612b82818560208601613a24565b612b8b81613bbf565b840191505092915050565b6000612ba182613854565b612bab8185613870565b9350612bbb818560208601613a24565b612bc481613bbf565b840191505092915050565b6000612bda82613854565b612be48185613881565b9350612bf4818560208601613a24565b80840191505092915050565b6000612c0d602b83613870565b91507f455243373231456e756d657261626c653a206f776e657220696e646578206f7560008301527f74206f6620626f756e64730000000000000000000000000000000000000000006020830152604082019050919050565b6000612c73603283613870565b91507f4552433732313a207472616e7366657220746f206e6f6e20455243373231526560008301527f63656976657220696d706c656d656e74657200000000000000000000000000006020830152604082019050919050565b6000612cd9602683613870565b91507f4f776e61626c653a206e6577206f776e657220697320746865207a65726f206160008301527f64647265737300000000000000000000000000000000000000000000000000006020830152604082019050919050565b6000612d3f601c83613870565b91507f4552433732313a20746f6b656e20616c7265616479206d696e746564000000006000830152602082019050919050565b6000612d7f602483613870565b91507f4552433732313a207472616e7366657220746f20746865207a65726f2061646460008301527f72657373000000000000000000000000000000000000000000000000000000006020830152604082019050919050565b6000612de5601983613870565b91507f4552433732313a20617070726f766520746f2063616c6c6572000000000000006000830152602082019050919050565b6000612e25601f83613870565b91507f45746865722076616c75652073656e74206973206e6f7420636f7272656374006000830152602082019050919050565b6000612e65602c83613870565b91507f4552433732313a206f70657261746f7220717565727920666f72206e6f6e657860008301527f697374656e7420746f6b656e00000000000000000000000000000000000000006020830152604082019050919050565b6000612ecb603883613870565b91507f4552433732313a20617070726f76652063616c6c6572206973206e6f74206f7760008301527f6e6572206e6f7220617070726f76656420666f7220616c6c00000000000000006020830152604082019050919050565b6000612f31602a83613870565b91507f4552433732313a2062616c616e636520717565727920666f7220746865207a6560008301527f726f2061646472657373000000000000000000000000000000000000000000006020830152604082019050919050565b6000612f97602983613870565b91507f4552433732313a206f776e657220717565727920666f72206e6f6e657869737460008301527f656e7420746f6b656e00000000000000000000000000000000000000000000006020830152604082019050919050565b6000612ffd602183613870565b91507f43616e206f6e6c79206d696e7420323520746f6b656e7320617420612074696d60008301527f65000000000000000000000000000000000000000000000000000000000000006020830152604082019050919050565b6000613063602683613870565b91507f53616c65206d7573742062652061637469766520746f206d696e74204465766560008301527f6c6f7065727300000000000000000000000000000000000000000000000000006020830152604082019050919050565b60006130c9602083613870565b91507f4552433732313a206d696e7420746f20746865207a65726f20616464726573736000830152602082019050919050565b6000613109602c83613870565b91507f4552433732313a20617070726f76656420717565727920666f72206e6f6e657860008301527f697374656e7420746f6b656e00000000000000000000000000000000000000006020830152604082019050919050565b600061316f602083613870565b91507f4f776e61626c653a2063616c6c6572206973206e6f7420746865206f776e65726000830152602082019050919050565b60006131af602e83613870565b91507f507572636861736520776f756c6420657863656564206d617820737570706c7960008301527f206f6620446576656c6f706572730000000000000000000000000000000000006020830152604082019050919050565b6000613215602983613870565b91507f4552433732313a207472616e73666572206f6620746f6b656e2074686174206960008301527f73206e6f74206f776e00000000000000000000000000000000000000000000006020830152604082019050919050565b600061327b602f83613870565b91507f4552433732314d657461646174613a2055524920717565727920666f72206e6f60008301527f6e6578697374656e7420746f6b656e00000000000000000000000000000000006020830152604082019050919050565b60006132e1602183613870565b91507f4552433732313a20617070726f76616c20746f2063757272656e74206f776e6560008301527f72000000000000000000000000000000000000000000000000000000000000006020830152604082019050919050565b6000613347603183613870565b91507f4552433732313a207472616e736665722063616c6c6572206973206e6f74206f60008301527f776e6572206e6f7220617070726f7665640000000000000000000000000000006020830152604082019050919050565b60006133ad602c83613870565b91507f455243373231456e756d657261626c653a20676c6f62616c20696e646578206f60008301527f7574206f6620626f756e647300000000000000000000000000000000000000006020830152604082019050919050565b61340f81613a0b565b82525050565b60006134218285612bcf565b915061342d8284612bcf565b91508190509392505050565b600060208201905061344e6000830184612b3f565b92915050565b60006080820190506134696000830187612b3f565b6134766020830186612b3f565b6134836040830185613406565b81810360608301526134958184612b5d565b905095945050505050565b60006020820190506134b56000830184612b4e565b92915050565b600060208201905081810360008301526134d58184612b96565b905092915050565b600060208201905081810360008301526134f681612c00565b9050919050565b6000602082019050818103600083015261351681612c66565b9050919050565b6000602082019050818103600083015261353681612ccc565b9050919050565b6000602082019050818103600083015261355681612d32565b9050919050565b6000602082019050818103600083015261357681612d72565b9050919050565b6000602082019050818103600083015261359681612dd8565b9050919050565b600060208201905081810360008301526135b681612e18565b9050919050565b600060208201905081810360008301526135d681612e58565b9050919050565b600060208201905081810360008301526135f681612ebe565b9050919050565b6000602082019050818103600083015261361681612f24565b9050919050565b6000602082019050818103600083015261363681612f8a565b9050919050565b6000602082019050818103600083015261365681612ff0565b9050919050565b6000602082019050818103600083015261367681613056565b9050919050565b60006020820190508181036000830152613696816130bc565b9050919050565b600060208201905081810360008301526136b6816130fc565b9050919050565b600060208201905081810360008301526136d681613162565b9050919050565b600060208201905081810360008301526136f6816131a2565b9050919050565b6000602082019050818103600083015261371681613208565b9050919050565b600060208201905081810360008301526137368161326e565b9050919050565b60006020820190508181036000830152613756816132d4565b9050919050565b600060208201905081810360008301526137768161333a565b9050919050565b60006020820190508181036000830152613796816133a0565b9050919050565b60006020820190506137b26000830184613406565b92915050565b6000604051905081810181811067ffffffffffffffff821117156137df576137de613b90565b5b8060405250919050565b600067ffffffffffffffff82111561380457613803613b90565b5b601f19601f8301169050602081019050919050565b600067ffffffffffffffff82111561383457613833613b90565b5b601f19601f8301169050602081019050919050565b600081519050919050565b600081519050919050565b600082825260208201905092915050565b600082825260208201905092915050565b600081905092915050565b600061389782613a0b565b91506138a283613a0b565b9250827fffffffffffffffffffffffffffffffffffffffffffffffffffffffffffffffff038211156138d7576138d6613b03565b5b828201905092915050565b60006138ed82613a0b565b91506138f883613a0b565b92508261390857613907613b32565b5b828204905092915050565b600061391e82613a0b565b915061392983613a0b565b9250817fffffffffffffffffffffffffffffffffffffffffffffffffffffffffffffffff048311821515161561396257613961613b03565b5b828202905092915050565b600061397882613a0b565b915061398383613a0b565b92508282101561399657613995613b03565b5b828203905092915050565b60006139ac826139eb565b9050919050565b60008115159050919050565b60007fffffffff0000000000000000000000000000000000000000000000000000000082169050919050565b600073ffffffffffffffffffffffffffffffffffffffff82169050919050565b6000819050919050565b82818337600083830152505050565b60005b83811015613a42578082015181840152602081019050613a27565b83811115613a51576000848401525b50505050565b60006002820490506001821680613a6f57607f821691505b60208210811415613a8357613a82613b61565b5b50919050565b6000613a9482613a0b565b91507fffffffffffffffffffffffffffffffffffffffffffffffffffffffffffffffff821415613ac757613ac6613b03565b5b600182019050919050565b6000613add82613a0b565b9150613ae883613a0b565b925082613af857613af7613b32565b5b828206905092915050565b7f4e487b7100000000000000000000000000000000000000000000000000000000600052601160045260246000fd5b7f4e487b7100000000000000000000000000000000000000000000000000000000600052601260045260246000fd5b7f4e487b7100000000000000000000000000000000000000000000000000000000600052602260045260246000fd5b7f4e487b7100000000000000000000000000000000000000000000000000000000600052604160045260246000fd5b6000601f19601f8301169050919050565b613bd9816139a1565b8114613be457600080fd5b50565b613bf0816139b3565b8114613bfb57600080fd5b50565b613c07816139bf565b8114613c1257600080fd5b50565b613c1e81613a0b565b8114613c2957600080fd5b5056fea26469706673582212200f388eb359339c5fee6d58b144699f12b0a31b5f10083fdcf89673e699b4781464736f6c63430008000033",
  "immutableReferences": {},
  "source": "// SPDX-License-Identifier: MIT\npragma solidity ^0.8.0;\n\nimport \"@openzeppelin/contracts/token/ERC721/extensions/ERC721Enumerable.sol\";\nimport \"@openzeppelin/contracts/token/ERC721/ERC721.sol\";\nimport \"@openzeppelin/contracts/access/Ownable.sol\";\nimport \"@openzeppelin/contracts/utils/math/SafeMath.sol\";\n\ncontract KryptoDevelopers is ERC721, ERC721Enumerable, Ownable {\n    using SafeMath for uint256;\n    using Strings for uint256;\n\n    mapping(string => bool) _developerExists;\n\n    string private _developersBaseURI;\n\n    bool public saleIsActive = false;\n\n    bool public mergeIsActive = false;\n\n    uint256 public constant MAX_MINT_QUANTITY = 25;\n\n    uint256 public constant MAX_DEVELOPERS = 27;\n\n    uint256 public constant developerPrice = 25000000000000000; // 0.025 ETH\n\n    constructor() ERC721(\"KryptoDevelopers\", \"KDEV\") {}\n\n    function _beforeTokenTransfer(\n        address from,\n        address to,\n        uint256 tokenId\n    ) internal override(ERC721, ERC721Enumerable) {\n        super._beforeTokenTransfer(from, to, tokenId);\n    }\n\n    function supportsInterface(bytes4 interfaceId)\n        public\n        view\n        override(ERC721, ERC721Enumerable)\n        returns (bool)\n    {\n        return super.supportsInterface(interfaceId);\n    }\n\n    function flipSaleState() public onlyOwner {\n        saleIsActive = !saleIsActive;\n    }\n\n    function mint(uint256 quantity) public payable {\n        require(saleIsActive, \"Sale must be active to mint Developers\");\n        require(\n            quantity > 0 && quantity <= MAX_MINT_QUANTITY,\n            \"Can only mint 25 tokens at a time\"\n        );\n        require(\n            totalSupply().add(quantity) <= MAX_DEVELOPERS,\n            \"Purchase would exceed max supply of Developers\"\n        );\n        require(\n            msg.value >= developerPrice.mul(quantity),\n            \"Ether value sent is not correct\"\n        );\n\n        for (uint256 i = 0; i < quantity; i++) {\n            uint256 mintIndex = totalSupply();\n            if (totalSupply() < MAX_DEVELOPERS) {\n                _safeMint(msg.sender, mintIndex);\n            }\n        }\n    }\n\n    function setBaseURI(string memory baseURI_) external onlyOwner {\n        _developersBaseURI = baseURI_;\n    }\n\n    function tokenURI(uint256 tokenId)\n        public\n        view\n        virtual\n        override\n        returns (string memory)\n    {\n        require(\n            _exists(tokenId),\n            \"ERC721Metadata: URI query for nonexistent token\"\n        );\n        string memory base = _developersBaseURI;\n        return string(abi.encodePacked(base, tokenId.toString()));\n    }\n\n\n    function mergeNFT(uint256 firstTokenId, uint256 secondTokenId) public {\n        \n    }\n}\n",
  "sourcePath": "/home/teixeira/repositories/kryptodevelopers/contract/contracts/KryptoDevelopers.sol",
  "compiler": {
    "name": "solc",
    "version": "0.8.0+commit.c7dfd78e.Emscripten.clang"
  },
  "schemaVersion": "3.4.3",
  "updatedAt": "2021-10-30T02:20:18.410Z",
  "devdoc": {
    "kind": "dev",
    "methods": {
      "approve(address,uint256)": {
        "details": "See {IERC721-approve}."
      },
      "balanceOf(address)": {
        "details": "See {IERC721-balanceOf}."
      },
      "getApproved(uint256)": {
        "details": "See {IERC721-getApproved}."
      },
      "isApprovedForAll(address,address)": {
        "details": "See {IERC721-isApprovedForAll}."
      },
      "name()": {
        "details": "See {IERC721Metadata-name}."
      },
      "owner()": {
        "details": "Returns the address of the current owner."
      },
      "ownerOf(uint256)": {
        "details": "See {IERC721-ownerOf}."
      },
      "renounceOwnership()": {
        "details": "Leaves the contract without owner. It will not be possible to call `onlyOwner` functions anymore. Can only be called by the current owner. NOTE: Renouncing ownership will leave the contract without an owner, thereby removing any functionality that is only available to the owner."
      },
      "safeTransferFrom(address,address,uint256)": {
        "details": "See {IERC721-safeTransferFrom}."
      },
      "safeTransferFrom(address,address,uint256,bytes)": {
        "details": "See {IERC721-safeTransferFrom}."
      },
      "setApprovalForAll(address,bool)": {
        "details": "See {IERC721-setApprovalForAll}."
      },
      "symbol()": {
        "details": "See {IERC721Metadata-symbol}."
      },
      "tokenByIndex(uint256)": {
        "details": "See {IERC721Enumerable-tokenByIndex}."
      },
      "tokenOfOwnerByIndex(address,uint256)": {
        "details": "See {IERC721Enumerable-tokenOfOwnerByIndex}."
      },
      "tokenURI(uint256)": {
        "details": "See {IERC721Metadata-tokenURI}."
      },
      "totalSupply()": {
        "details": "See {IERC721Enumerable-totalSupply}."
      },
      "transferFrom(address,address,uint256)": {
        "details": "See {IERC721-transferFrom}."
      },
      "transferOwnership(address)": {
        "details": "Transfers ownership of the contract to a new account (`newOwner`). Can only be called by the current owner."
      }
    },
    "version": 1
  },
  "userdoc": {
    "kind": "user",
    "methods": {},
    "version": 1
  }
}