{
  "contractName": "KryptoDevelopers",
  "abi": [
    {
      "inputs": [
        {
          "internalType": "string",
          "name": "name_",
          "type": "string"
        },
        {
          "internalType": "string",
          "name": "symbol_",
          "type": "string"
        },
        {
          "internalType": "string",
          "name": "baseURI_",
          "type": "string"
        }
      ],
      "stateMutability": "nonpayable",
      "type": "constructor"
    },
    {
      "anonymous": false,
      "inputs": [
        {
          "indexed": true,
          "internalType": "address",
          "name": "owner",
          "type": "address"
        },
        {
          "indexed": true,
          "internalType": "address",
          "name": "approved",
          "type": "address"
        },
        {
          "indexed": true,
          "internalType": "uint256",
          "name": "tokenId",
          "type": "uint256"
        }
      ],
      "name": "Approval",
      "type": "event"
    },
    {
      "anonymous": false,
      "inputs": [
        {
          "indexed": true,
          "internalType": "address",
          "name": "owner",
          "type": "address"
        },
        {
          "indexed": true,
          "internalType": "address",
          "name": "operator",
          "type": "address"
        },
        {
          "indexed": false,
          "internalType": "bool",
          "name": "approved",
          "type": "bool"
        }
      ],
      "name": "ApprovalForAll",
      "type": "event"
    },
    {
      "anonymous": false,
      "inputs": [
        {
          "indexed": true,
          "internalType": "address",
          "name": "previousOwner",
          "type": "address"
        },
        {
          "indexed": true,
          "internalType": "address",
          "name": "newOwner",
          "type": "address"
        }
      ],
      "name": "OwnershipTransferred",
      "type": "event"
    },
    {
      "anonymous": false,
      "inputs": [
        {
          "indexed": true,
          "internalType": "address",
          "name": "from",
          "type": "address"
        },
        {
          "indexed": true,
          "internalType": "address",
          "name": "to",
          "type": "address"
        },
        {
          "indexed": true,
          "internalType": "uint256",
          "name": "tokenId",
          "type": "uint256"
        }
      ],
      "name": "Transfer",
      "type": "event"
    },
    {
      "inputs": [],
      "name": "MAX_DEVELOPERS",
      "outputs": [
        {
          "internalType": "uint256",
          "name": "",
          "type": "uint256"
        }
      ],
      "stateMutability": "view",
      "type": "function"
    },
    {
      "inputs": [],
      "name": "MAX_MINT_QUANTITY",
      "outputs": [
        {
          "internalType": "uint256",
          "name": "",
          "type": "uint256"
        }
      ],
      "stateMutability": "view",
      "type": "function"
    },
    {
      "inputs": [
        {
          "internalType": "address",
          "name": "to",
          "type": "address"
        },
        {
          "internalType": "uint256",
          "name": "tokenId",
          "type": "uint256"
        }
      ],
      "name": "approve",
      "outputs": [],
      "stateMutability": "nonpayable",
      "type": "function"
    },
    {
      "inputs": [
        {
          "internalType": "address",
          "name": "owner",
          "type": "address"
        }
      ],
      "name": "balanceOf",
      "outputs": [
        {
          "internalType": "uint256",
          "name": "",
          "type": "uint256"
        }
      ],
      "stateMutability": "view",
      "type": "function"
    },
    {
      "inputs": [],
      "name": "developerPrice",
      "outputs": [
        {
          "internalType": "uint256",
          "name": "",
          "type": "uint256"
        }
      ],
      "stateMutability": "view",
      "type": "function"
    },
    {
      "inputs": [
        {
          "internalType": "uint256",
          "name": "tokenId",
          "type": "uint256"
        }
      ],
      "name": "getApproved",
      "outputs": [
        {
          "internalType": "address",
          "name": "",
          "type": "address"
        }
      ],
      "stateMutability": "view",
      "type": "function"
    },
    {
      "inputs": [
        {
          "internalType": "address",
          "name": "owner",
          "type": "address"
        },
        {
          "internalType": "address",
          "name": "operator",
          "type": "address"
        }
      ],
      "name": "isApprovedForAll",
      "outputs": [
        {
          "internalType": "bool",
          "name": "",
          "type": "bool"
        }
      ],
      "stateMutability": "view",
      "type": "function"
    },
    {
      "inputs": [],
      "name": "mergeIsActive",
      "outputs": [
        {
          "internalType": "bool",
          "name": "",
          "type": "bool"
        }
      ],
      "stateMutability": "view",
      "type": "function"
    },
    {
      "inputs": [],
      "name": "name",
      "outputs": [
        {
          "internalType": "string",
          "name": "",
          "type": "string"
        }
      ],
      "stateMutability": "view",
      "type": "function"
    },
    {
      "inputs": [],
      "name": "owner",
      "outputs": [
        {
          "internalType": "address",
          "name": "",
          "type": "address"
        }
      ],
      "stateMutability": "view",
      "type": "function"
    },
    {
      "inputs": [
        {
          "internalType": "uint256",
          "name": "tokenId",
          "type": "uint256"
        }
      ],
      "name": "ownerOf",
      "outputs": [
        {
          "internalType": "address",
          "name": "",
          "type": "address"
        }
      ],
      "stateMutability": "view",
      "type": "function"
    },
    {
      "inputs": [],
      "name": "renounceOwnership",
      "outputs": [],
      "stateMutability": "nonpayable",
      "type": "function"
    },
    {
      "inputs": [
        {
          "internalType": "address",
          "name": "from",
          "type": "address"
        },
        {
          "internalType": "address",
          "name": "to",
          "type": "address"
        },
        {
          "internalType": "uint256",
          "name": "tokenId",
          "type": "uint256"
        }
      ],
      "name": "safeTransferFrom",
      "outputs": [],
      "stateMutability": "nonpayable",
      "type": "function"
    },
    {
      "inputs": [
        {
          "internalType": "address",
          "name": "from",
          "type": "address"
        },
        {
          "internalType": "address",
          "name": "to",
          "type": "address"
        },
        {
          "internalType": "uint256",
          "name": "tokenId",
          "type": "uint256"
        },
        {
          "internalType": "bytes",
          "name": "_data",
          "type": "bytes"
        }
      ],
      "name": "safeTransferFrom",
      "outputs": [],
      "stateMutability": "nonpayable",
      "type": "function"
    },
    {
      "inputs": [],
      "name": "saleIsActive",
      "outputs": [
        {
          "internalType": "bool",
          "name": "",
          "type": "bool"
        }
      ],
      "stateMutability": "view",
      "type": "function"
    },
    {
      "inputs": [
        {
          "internalType": "address",
          "name": "operator",
          "type": "address"
        },
        {
          "internalType": "bool",
          "name": "approved",
          "type": "bool"
        }
      ],
      "name": "setApprovalForAll",
      "outputs": [],
      "stateMutability": "nonpayable",
      "type": "function"
    },
    {
      "inputs": [
        {
          "internalType": "bytes4",
          "name": "interfaceId",
          "type": "bytes4"
        }
      ],
      "name": "supportsInterface",
      "outputs": [
        {
          "internalType": "bool",
          "name": "",
          "type": "bool"
        }
      ],
      "stateMutability": "view",
      "type": "function"
    },
    {
      "inputs": [],
      "name": "symbol",
      "outputs": [
        {
          "internalType": "string",
          "name": "",
          "type": "string"
        }
      ],
      "stateMutability": "view",
      "type": "function"
    },
    {
      "inputs": [
        {
          "internalType": "uint256",
          "name": "index",
          "type": "uint256"
        }
      ],
      "name": "tokenByIndex",
      "outputs": [
        {
          "internalType": "uint256",
          "name": "",
          "type": "uint256"
        }
      ],
      "stateMutability": "view",
      "type": "function"
    },
    {
      "inputs": [
        {
          "internalType": "address",
          "name": "owner",
          "type": "address"
        },
        {
          "internalType": "uint256",
          "name": "index",
          "type": "uint256"
        }
      ],
      "name": "tokenOfOwnerByIndex",
      "outputs": [
        {
          "internalType": "uint256",
          "name": "",
          "type": "uint256"
        }
      ],
      "stateMutability": "view",
      "type": "function"
    },
    {
      "inputs": [],
      "name": "totalSupply",
      "outputs": [
        {
          "internalType": "uint256",
          "name": "",
          "type": "uint256"
        }
      ],
      "stateMutability": "view",
      "type": "function"
    },
    {
      "inputs": [
        {
          "internalType": "address",
          "name": "from",
          "type": "address"
        },
        {
          "internalType": "address",
          "name": "to",
          "type": "address"
        },
        {
          "internalType": "uint256",
          "name": "tokenId",
          "type": "uint256"
        }
      ],
      "name": "transferFrom",
      "outputs": [],
      "stateMutability": "nonpayable",
      "type": "function"
    },
    {
      "inputs": [
        {
          "internalType": "address",
          "name": "newOwner",
          "type": "address"
        }
      ],
      "name": "transferOwnership",
      "outputs": [],
      "stateMutability": "nonpayable",
      "type": "function"
    },
    {
      "inputs": [],
      "name": "flipSaleState",
      "outputs": [],
      "stateMutability": "nonpayable",
      "type": "function"
    },
    {
      "inputs": [
        {
          "internalType": "uint256",
          "name": "quantity",
          "type": "uint256"
        }
      ],
      "name": "mint",
      "outputs": [],
      "stateMutability": "payable",
      "type": "function"
    },
    {
      "inputs": [
        {
          "internalType": "string",
          "name": "baseURI_",
          "type": "string"
        }
      ],
      "name": "setBaseURI",
      "outputs": [],
      "stateMutability": "nonpayable",
      "type": "function"
    },
    {
      "inputs": [
        {
          "internalType": "uint256",
          "name": "tokenId",
          "type": "uint256"
        }
      ],
      "name": "tokenURI",
      "outputs": [
        {
          "internalType": "string",
          "name": "",
          "type": "string"
        }
      ],
      "stateMutability": "view",
      "type": "function"
    },
    {
      "inputs": [
        {
          "internalType": "address",
          "name": "owner",
          "type": "address"
        }
      ],
      "name": "tokensOfOwner",
      "outputs": [
        {
          "internalType": "uint256[]",
          "name": "",
          "type": "uint256[]"
        }
      ],
      "stateMutability": "view",
      "type": "function"
    }
  ],
  "bytecode": "0x60806040526000600d60006101000a81548160ff0219169083151502179055506000600d60016101000a81548160ff0219169083151502179055503480156200004757600080fd5b50604051620042a5380380620042a583398181016040528101906200006d9190620002d5565b8282816000908051906020019062000087929190620001b3565b508060019080519060200190620000a0929190620001b3565b505050620000c3620000b7620000e560201b60201c565b620000ed60201b60201c565b80600c9080519060200190620000db929190620001b3565b50505050620004a7565b600033905090565b6000600a60009054906101000a900473ffffffffffffffffffffffffffffffffffffffff16905081600a60006101000a81548173ffffffffffffffffffffffffffffffffffffffff021916908373ffffffffffffffffffffffffffffffffffffffff1602179055508173ffffffffffffffffffffffffffffffffffffffff168173ffffffffffffffffffffffffffffffffffffffff167f8be0079c531659141344cd1fd0a4f28419497f9722a3daafe3b4186f6b6457e060405160405180910390a35050565b828054620001c19062000413565b90600052602060002090601f016020900481019282620001e5576000855562000231565b82601f106200020057805160ff191683800117855562000231565b8280016001018555821562000231579182015b828111156200023057825182559160200191906001019062000213565b5b50905062000240919062000244565b5090565b5b808211156200025f57600081600090555060010162000245565b5090565b60006200027a6200027484620003aa565b62000376565b9050828152602081018484840111156200029357600080fd5b620002a0848285620003dd565b509392505050565b600082601f830112620002ba57600080fd5b8151620002cc84826020860162000263565b91505092915050565b600080600060608486031215620002eb57600080fd5b600084015167ffffffffffffffff8111156200030657600080fd5b6200031486828701620002a8565b935050602084015167ffffffffffffffff8111156200033257600080fd5b6200034086828701620002a8565b925050604084015167ffffffffffffffff8111156200035e57600080fd5b6200036c86828701620002a8565b9150509250925092565b6000604051905081810181811067ffffffffffffffff82111715620003a0576200039f62000478565b5b8060405250919050565b600067ffffffffffffffff821115620003c857620003c762000478565b5b601f19601f8301169050602081019050919050565b60005b83811015620003fd578082015181840152602081019050620003e0565b838111156200040d576000848401525b50505050565b600060028204905060018216806200042c57607f821691505b6020821081141562000443576200044262000449565b5b50919050565b7f4e487b7100000000000000000000000000000000000000000000000000000000600052602260045260246000fd5b7f4e487b7100000000000000000000000000000000000000000000000000000000600052604160045260246000fd5b613dee80620004b76000396000f3fe6080604052600436106101b75760003560e01c806371273bb7116100ec578063b88d4fde1161008a578063eb8d244411610064578063eb8d244414610623578063ec78c00f1461064e578063f2fde38b14610679578063f7ee7a18146106a2576101b7565b8063b88d4fde14610580578063c87b56dd146105a9578063e985e9c5146105e6576101b7565b80638da5cb5b116100c65780638da5cb5b146104e557806395d89b4114610510578063a0712d681461053b578063a22cb46514610557576101b7565b806371273bb714610466578063715018a6146104915780638462151c146104a8576101b7565b806334918dfd1161015957806355f804b31161013357806355f804b3146103985780635f890ddf146103c15780636352211e146103ec57806370a0823114610429576101b7565b806334918dfd1461031b57806342842e0e146103325780634f6ccce71461035b576101b7565b8063095ea7b311610195578063095ea7b31461026157806318160ddd1461028a57806323b872dd146102b55780632f745c59146102de576101b7565b806301ffc9a7146101bc57806306fdde03146101f9578063081812fc14610224575b600080fd5b3480156101c857600080fd5b506101e360048036038101906101de9190612b2f565b6106cd565b6040516101f091906135f3565b60405180910390f35b34801561020557600080fd5b5061020e610747565b60405161021b919061360e565b60405180910390f35b34801561023057600080fd5b5061024b60048036038101906102469190612bc2565b6107d9565b604051610258919061356a565b60405180910390f35b34801561026d57600080fd5b5061028860048036038101906102839190612af3565b61085e565b005b34801561029657600080fd5b5061029f610976565b6040516102ac91906138f0565b60405180910390f35b3480156102c157600080fd5b506102dc60048036038101906102d791906129ed565b610983565b005b3480156102ea57600080fd5b5061030560048036038101906103009190612af3565b6109e3565b60405161031291906138f0565b60405180910390f35b34801561032757600080fd5b50610330610a88565b005b34801561033e57600080fd5b50610359600480360381019061035491906129ed565b610b30565b005b34801561036757600080fd5b50610382600480360381019061037d9190612bc2565b610b50565b60405161038f91906138f0565b60405180910390f35b3480156103a457600080fd5b506103bf60048036038101906103ba9190612b81565b610be7565b005b3480156103cd57600080fd5b506103d6610c7d565b6040516103e391906138f0565b60405180910390f35b3480156103f857600080fd5b50610413600480360381019061040e9190612bc2565b610c88565b604051610420919061356a565b60405180910390f35b34801561043557600080fd5b50610450600480360381019061044b9190612988565b610d3a565b60405161045d91906138f0565b60405180910390f35b34801561047257600080fd5b5061047b610df2565b60405161048891906138f0565b60405180910390f35b34801561049d57600080fd5b506104a6610df7565b005b3480156104b457600080fd5b506104cf60048036038101906104ca9190612988565b610e7f565b6040516104dc91906135d1565b60405180910390f35b3480156104f157600080fd5b506104fa610f79565b604051610507919061356a565b60405180910390f35b34801561051c57600080fd5b50610525610fa3565b604051610532919061360e565b60405180910390f35b61055560048036038101906105509190612bc2565b611035565b005b34801561056357600080fd5b5061057e60048036038101906105799190612ab7565b6111d7565b005b34801561058c57600080fd5b506105a760048036038101906105a29190612a3c565b611358565b005b3480156105b557600080fd5b506105d060048036038101906105cb9190612bc2565b6113ba565b6040516105dd919061360e565b60405180910390f35b3480156105f257600080fd5b5061060d600480360381019061060891906129b1565b6114c5565b60405161061a91906135f3565b60405180910390f35b34801561062f57600080fd5b50610638611559565b60405161064591906135f3565b60405180910390f35b34801561065a57600080fd5b5061066361156c565b60405161067091906138f0565b60405180910390f35b34801561068557600080fd5b506106a0600480360381019061069b9190612988565b611571565b005b3480156106ae57600080fd5b506106b7611669565b6040516106c491906135f3565b60405180910390f35b60007f780e9d63000000000000000000000000000000000000000000000000000000007bffffffffffffffffffffffffffffffffffffffffffffffffffffffff1916827bffffffffffffffffffffffffffffffffffffffffffffffffffffffff19161480610740575061073f8261167c565b5b9050919050565b60606000805461075690613be3565b80601f016020809104026020016040519081016040528092919081815260200182805461078290613be3565b80156107cf5780601f106107a4576101008083540402835291602001916107cf565b820191906000526020600020905b8154815290600101906020018083116107b257829003601f168201915b5050505050905090565b60006107e48261175e565b610823576040517f08c379a000000000000000000000000000000000000000000000000000000000815260040161081a906137f0565b60405180910390fd5b6004600083815260200190815260200160002060009054906101000a900473ffffffffffffffffffffffffffffffffffffffff169050919050565b600061086982610c88565b90508073ffffffffffffffffffffffffffffffffffffffff168373ffffffffffffffffffffffffffffffffffffffff1614156108da576040517f08c379a00000000000000000000000000000000000000000000000000000000081526004016108d190613890565b60405180910390fd5b8073ffffffffffffffffffffffffffffffffffffffff166108f96117ca565b73ffffffffffffffffffffffffffffffffffffffff1614806109285750610927816109226117ca565b6114c5565b5b610967576040517f08c379a000000000000000000000000000000000000000000000000000000000815260040161095e90613730565b60405180910390fd5b61097183836117d2565b505050565b6000600880549050905090565b61099461098e6117ca565b8261188b565b6109d3576040517f08c379a00000000000000000000000000000000000000000000000000000000081526004016109ca906138b0565b60405180910390fd5b6109de838383611969565b505050565b60006109ee83610d3a565b8210610a2f576040517f08c379a0000000000000000000000000000000000000000000000000000000008152600401610a2690613630565b60405180910390fd5b600660008473ffffffffffffffffffffffffffffffffffffffff1673ffffffffffffffffffffffffffffffffffffffff168152602001908152602001600020600083815260200190815260200160002054905092915050565b610a906117ca565b73ffffffffffffffffffffffffffffffffffffffff16610aae610f79565b73ffffffffffffffffffffffffffffffffffffffff1614610b04576040517f08c379a0000000000000000000000000000000000000000000000000000000008152600401610afb90613810565b60405180910390fd5b600d60009054906101000a900460ff1615600d60006101000a81548160ff021916908315150217905550565b610b4b83838360405180602001604052806000815250611358565b505050565b6000610b5a610976565b8210610b9b576040517f08c379a0000000000000000000000000000000000000000000000000000000008152600401610b92906138d0565b60405180910390fd5b60088281548110610bd5577f4e487b7100000000000000000000000000000000000000000000000000000000600052603260045260246000fd5b90600052602060002001549050919050565b610bef6117ca565b73ffffffffffffffffffffffffffffffffffffffff16610c0d610f79565b73ffffffffffffffffffffffffffffffffffffffff1614610c63576040517f08c379a0000000000000000000000000000000000000000000000000000000008152600401610c5a90613810565b60405180910390fd5b80600c9080519060200190610c799291906127ac565b5050565b6658d15e1762800081565b6000806002600084815260200190815260200160002060009054906101000a900473ffffffffffffffffffffffffffffffffffffffff169050600073ffffffffffffffffffffffffffffffffffffffff168173ffffffffffffffffffffffffffffffffffffffff161415610d31576040517f08c379a0000000000000000000000000000000000000000000000000000000008152600401610d2890613770565b60405180910390fd5b80915050919050565b60008073ffffffffffffffffffffffffffffffffffffffff168273ffffffffffffffffffffffffffffffffffffffff161415610dab576040517f08c379a0000000000000000000000000000000000000000000000000000000008152600401610da290613750565b60405180910390fd5b600360008373ffffffffffffffffffffffffffffffffffffffff1673ffffffffffffffffffffffffffffffffffffffff168152602001908152602001600020549050919050565b601981565b610dff6117ca565b73ffffffffffffffffffffffffffffffffffffffff16610e1d610f79565b73ffffffffffffffffffffffffffffffffffffffff1614610e73576040517f08c379a0000000000000000000000000000000000000000000000000000000008152600401610e6a90613810565b60405180910390fd5b610e7d6000611bc5565b565b60606000610e8c83610d3a565b905060008167ffffffffffffffff811115610ed0577f4e487b7100000000000000000000000000000000000000000000000000000000600052604160045260246000fd5b604051908082528060200260200182016040528015610efe5781602001602082028036833780820191505090505b50905060005b82811015610f6e57610f1685826109e3565b828281518110610f4f577f4e487b7100000000000000000000000000000000000000000000000000000000600052603260045260246000fd5b6020026020010181815250508080610f6690613c15565b915050610f04565b508092505050919050565b6000600a60009054906101000a900473ffffffffffffffffffffffffffffffffffffffff16905090565b606060018054610fb290613be3565b80601f0160208091040260200160405190810160405280929190818152602001828054610fde90613be3565b801561102b5780601f106110005761010080835404028352916020019161102b565b820191906000526020600020905b81548152906001019060200180831161100e57829003601f168201915b5050505050905090565b600d60009054906101000a900460ff16611084576040517f08c379a000000000000000000000000000000000000000000000000000000000815260040161107b906137b0565b60405180910390fd5b600081118015611095575060198111155b6110d4576040517f08c379a00000000000000000000000000000000000000000000000000000000081526004016110cb90613790565b60405180910390fd5b601b6110f0826110e2610976565b611c8b90919063ffffffff16565b1115611131576040517f08c379a000000000000000000000000000000000000000000000000000000000815260040161112890613830565b60405180910390fd5b61114b816658d15e17628000611ca190919063ffffffff16565b34101561118d576040517f08c379a0000000000000000000000000000000000000000000000000000000008152600401611184906136f0565b60405180910390fd5b60005b818110156111d35760006111a2610976565b9050601b6111ae610976565b10156111bf576111be3382611cb7565b5b5080806111cb90613c15565b915050611190565b5050565b6111df6117ca565b73ffffffffffffffffffffffffffffffffffffffff168273ffffffffffffffffffffffffffffffffffffffff16141561124d576040517f08c379a0000000000000000000000000000000000000000000000000000000008152600401611244906136d0565b60405180910390fd5b806005600061125a6117ca565b73ffffffffffffffffffffffffffffffffffffffff1673ffffffffffffffffffffffffffffffffffffffff16815260200190815260200160002060008473ffffffffffffffffffffffffffffffffffffffff1673ffffffffffffffffffffffffffffffffffffffff16815260200190815260200160002060006101000a81548160ff0219169083151502179055508173ffffffffffffffffffffffffffffffffffffffff166113076117ca565b73ffffffffffffffffffffffffffffffffffffffff167f17307eab39ab6107e8899845ad3d59bd9653f200f220920489ca2b5937696c318360405161134c91906135f3565b60405180910390a35050565b6113696113636117ca565b8361188b565b6113a8576040517f08c379a000000000000000000000000000000000000000000000000000000000815260040161139f906138b0565b60405180910390fd5b6113b484848484611cd5565b50505050565b60606113c58261175e565b611404576040517f08c379a00000000000000000000000000000000000000000000000000000000081526004016113fb90613870565b60405180910390fd5b6000600c805461141390613be3565b80601f016020809104026020016040519081016040528092919081815260200182805461143f90613be3565b801561148c5780601f106114615761010080835404028352916020019161148c565b820191906000526020600020905b81548152906001019060200180831161146f57829003601f168201915b505050505090508061149d84611d31565b6040516020016114ae929190613546565b604051602081830303815290604052915050919050565b6000600560008473ffffffffffffffffffffffffffffffffffffffff1673ffffffffffffffffffffffffffffffffffffffff16815260200190815260200160002060008373ffffffffffffffffffffffffffffffffffffffff1673ffffffffffffffffffffffffffffffffffffffff16815260200190815260200160002060009054906101000a900460ff16905092915050565b600d60009054906101000a900460ff1681565b601b81565b6115796117ca565b73ffffffffffffffffffffffffffffffffffffffff16611597610f79565b73ffffffffffffffffffffffffffffffffffffffff16146115ed576040517f08c379a00000000000000000000000000000000000000000000000000000000081526004016115e490613810565b60405180910390fd5b600073ffffffffffffffffffffffffffffffffffffffff168173ffffffffffffffffffffffffffffffffffffffff16141561165d576040517f08c379a000000000000000000000000000000000000000000000000000000000815260040161165490613670565b60405180910390fd5b61166681611bc5565b50565b600d60019054906101000a900460ff1681565b60007f80ac58cd000000000000000000000000000000000000000000000000000000007bffffffffffffffffffffffffffffffffffffffffffffffffffffffff1916827bffffffffffffffffffffffffffffffffffffffffffffffffffffffff1916148061174757507f5b5e139f000000000000000000000000000000000000000000000000000000007bffffffffffffffffffffffffffffffffffffffffffffffffffffffff1916827bffffffffffffffffffffffffffffffffffffffffffffffffffffffff1916145b80611757575061175682611ede565b5b9050919050565b60008073ffffffffffffffffffffffffffffffffffffffff166002600084815260200190815260200160002060009054906101000a900473ffffffffffffffffffffffffffffffffffffffff1673ffffffffffffffffffffffffffffffffffffffff1614159050919050565b600033905090565b816004600083815260200190815260200160002060006101000a81548173ffffffffffffffffffffffffffffffffffffffff021916908373ffffffffffffffffffffffffffffffffffffffff160217905550808273ffffffffffffffffffffffffffffffffffffffff1661184583610c88565b73ffffffffffffffffffffffffffffffffffffffff167f8c5be1e5ebec7d5bd14f71427d1e84f3dd0314c0f7b2291e5b200ac8c7c3b92560405160405180910390a45050565b60006118968261175e565b6118d5576040517f08c379a00000000000000000000000000000000000000000000000000000000081526004016118cc90613710565b60405180910390fd5b60006118e083610c88565b90508073ffffffffffffffffffffffffffffffffffffffff168473ffffffffffffffffffffffffffffffffffffffff16148061194f57508373ffffffffffffffffffffffffffffffffffffffff16611937846107d9565b73ffffffffffffffffffffffffffffffffffffffff16145b80611960575061195f81856114c5565b5b91505092915050565b8273ffffffffffffffffffffffffffffffffffffffff1661198982610c88565b73ffffffffffffffffffffffffffffffffffffffff16146119df576040517f08c379a00000000000000000000000000000000000000000000000000000000081526004016119d690613850565b60405180910390fd5b600073ffffffffffffffffffffffffffffffffffffffff168273ffffffffffffffffffffffffffffffffffffffff161415611a4f576040517f08c379a0000000000000000000000000000000000000000000000000000000008152600401611a46906136b0565b60405180910390fd5b611a5a838383611f48565b611a656000826117d2565b6001600360008573ffffffffffffffffffffffffffffffffffffffff1673ffffffffffffffffffffffffffffffffffffffff1681526020019081526020016000206000828254611ab59190613af9565b925050819055506001600360008473ffffffffffffffffffffffffffffffffffffffff1673ffffffffffffffffffffffffffffffffffffffff1681526020019081526020016000206000828254611b0c9190613a18565b92505081905550816002600083815260200190815260200160002060006101000a81548173ffffffffffffffffffffffffffffffffffffffff021916908373ffffffffffffffffffffffffffffffffffffffff160217905550808273ffffffffffffffffffffffffffffffffffffffff168473ffffffffffffffffffffffffffffffffffffffff167fddf252ad1be2c89b69c2b068fc378daa952ba7f163c4a11628f55a4df523b3ef60405160405180910390a4505050565b6000600a60009054906101000a900473ffffffffffffffffffffffffffffffffffffffff16905081600a60006101000a81548173ffffffffffffffffffffffffffffffffffffffff021916908373ffffffffffffffffffffffffffffffffffffffff1602179055508173ffffffffffffffffffffffffffffffffffffffff168173ffffffffffffffffffffffffffffffffffffffff167f8be0079c531659141344cd1fd0a4f28419497f9722a3daafe3b4186f6b6457e060405160405180910390a35050565b60008183611c999190613a18565b905092915050565b60008183611caf9190613a9f565b905092915050565b611cd182826040518060200160405280600081525061205c565b5050565b611ce0848484611969565b611cec848484846120b7565b611d2b576040517f08c379a0000000000000000000000000000000000000000000000000000000008152600401611d2290613650565b60405180910390fd5b50505050565b60606000821415611d79576040518060400160405280600181526020017f30000000000000000000000000000000000000000000000000000000000000008152509050611ed9565b600082905060005b60008214611dab578080611d9490613c15565b915050600a82611da49190613a6e565b9150611d81565b60008167ffffffffffffffff811115611ded577f4e487b7100000000000000000000000000000000000000000000000000000000600052604160045260246000fd5b6040519080825280601f01601f191660200182016040528015611e1f5781602001600182028036833780820191505090505b5090505b60008514611ed257600182611e389190613af9565b9150600a85611e479190613c5e565b6030611e539190613a18565b60f81b818381518110611e8f577f4e487b7100000000000000000000000000000000000000000000000000000000600052603260045260246000fd5b60200101907effffffffffffffffffffffffffffffffffffffffffffffffffffffffffffff1916908160001a905350600a85611ecb9190613a6e565b9450611e23565b8093505050505b919050565b60007f01ffc9a7000000000000000000000000000000000000000000000000000000007bffffffffffffffffffffffffffffffffffffffffffffffffffffffff1916827bffffffffffffffffffffffffffffffffffffffffffffffffffffffff1916149050919050565b611f5383838361224e565b600073ffffffffffffffffffffffffffffffffffffffff168373ffffffffffffffffffffffffffffffffffffffff161415611f9657611f9181612253565b611fd5565b8173ffffffffffffffffffffffffffffffffffffffff168373ffffffffffffffffffffffffffffffffffffffff1614611fd457611fd3838261229c565b5b5b600073ffffffffffffffffffffffffffffffffffffffff168273ffffffffffffffffffffffffffffffffffffffff1614156120185761201381612409565b612057565b8273ffffffffffffffffffffffffffffffffffffffff168273ffffffffffffffffffffffffffffffffffffffff161461205657612055828261254c565b5b5b505050565b61206683836125cb565b61207360008484846120b7565b6120b2576040517f08c379a00000000000000000000000000000000000000000000000000000000081526004016120a990613650565b60405180910390fd5b505050565b60006120d88473ffffffffffffffffffffffffffffffffffffffff16612799565b15612241578373ffffffffffffffffffffffffffffffffffffffff1663150b7a026121016117ca565b8786866040518563ffffffff1660e01b81526004016121239493929190613585565b602060405180830381600087803b15801561213d57600080fd5b505af192505050801561216e57506040513d601f19601f8201168201806040525081019061216b9190612b58565b60015b6121f1573d806000811461219e576040519150601f19603f3d011682016040523d82523d6000602084013e6121a3565b606091505b506000815114156121e9576040517f08c379a00000000000000000000000000000000000000000000000000000000081526004016121e090613650565b60405180910390fd5b805181602001fd5b63150b7a0260e01b7bffffffffffffffffffffffffffffffffffffffffffffffffffffffff1916817bffffffffffffffffffffffffffffffffffffffffffffffffffffffff191614915050612246565b600190505b949350505050565b505050565b6008805490506009600083815260200190815260200160002081905550600881908060018154018082558091505060019003906000526020600020016000909190919091505550565b600060016122a984610d3a565b6122b39190613af9565b9050600060076000848152602001908152602001600020549050818114612398576000600660008673ffffffffffffffffffffffffffffffffffffffff1673ffffffffffffffffffffffffffffffffffffffff168152602001908152602001600020600084815260200190815260200160002054905080600660008773ffffffffffffffffffffffffffffffffffffffff1673ffffffffffffffffffffffffffffffffffffffff168152602001908152602001600020600084815260200190815260200160002081905550816007600083815260200190815260200160002081905550505b6007600084815260200190815260200160002060009055600660008573ffffffffffffffffffffffffffffffffffffffff1673ffffffffffffffffffffffffffffffffffffffff16815260200190815260200160002060008381526020019081526020016000206000905550505050565b6000600160088054905061241d9190613af9565b9050600060096000848152602001908152602001600020549050600060088381548110612473577f4e487b7100000000000000000000000000000000000000000000000000000000600052603260045260246000fd5b9060005260206000200154905080600883815481106124bb577f4e487b7100000000000000000000000000000000000000000000000000000000600052603260045260246000fd5b906000526020600020018190555081600960008381526020019081526020016000208190555060096000858152602001908152602001600020600090556008805480612530577f4e487b7100000000000000000000000000000000000000000000000000000000600052603160045260246000fd5b6001900381819060005260206000200160009055905550505050565b600061255783610d3a565b905081600660008573ffffffffffffffffffffffffffffffffffffffff1673ffffffffffffffffffffffffffffffffffffffff168152602001908152602001600020600083815260200190815260200160002081905550806007600084815260200190815260200160002081905550505050565b600073ffffffffffffffffffffffffffffffffffffffff168273ffffffffffffffffffffffffffffffffffffffff16141561263b576040517f08c379a0000000000000000000000000000000000000000000000000000000008152600401612632906137d0565b60405180910390fd5b6126448161175e565b15612684576040517f08c379a000000000000000000000000000000000000000000000000000000000815260040161267b90613690565b60405180910390fd5b61269060008383611f48565b6001600360008473ffffffffffffffffffffffffffffffffffffffff1673ffffffffffffffffffffffffffffffffffffffff16815260200190815260200160002060008282546126e09190613a18565b92505081905550816002600083815260200190815260200160002060006101000a81548173ffffffffffffffffffffffffffffffffffffffff021916908373ffffffffffffffffffffffffffffffffffffffff160217905550808273ffffffffffffffffffffffffffffffffffffffff16600073ffffffffffffffffffffffffffffffffffffffff167fddf252ad1be2c89b69c2b068fc378daa952ba7f163c4a11628f55a4df523b3ef60405160405180910390a45050565b600080823b905060008111915050919050565b8280546127b890613be3565b90600052602060002090601f0160209004810192826127da5760008555612821565b82601f106127f357805160ff1916838001178555612821565b82800160010185558215612821579182015b82811115612820578251825591602001919060010190612805565b5b50905061282e9190612832565b5090565b5b8082111561284b576000816000905550600101612833565b5090565b600061286261285d8461393c565b61390b565b90508281526020810184848401111561287a57600080fd5b612885848285613ba1565b509392505050565b60006128a061289b8461396c565b61390b565b9050828152602081018484840111156128b857600080fd5b6128c3848285613ba1565b509392505050565b6000813590506128da81613d5c565b92915050565b6000813590506128ef81613d73565b92915050565b60008135905061290481613d8a565b92915050565b60008151905061291981613d8a565b92915050565b600082601f83011261293057600080fd5b813561294084826020860161284f565b91505092915050565b600082601f83011261295a57600080fd5b813561296a84826020860161288d565b91505092915050565b60008135905061298281613da1565b92915050565b60006020828403121561299a57600080fd5b60006129a8848285016128cb565b91505092915050565b600080604083850312156129c457600080fd5b60006129d2858286016128cb565b92505060206129e3858286016128cb565b9150509250929050565b600080600060608486031215612a0257600080fd5b6000612a10868287016128cb565b9350506020612a21868287016128cb565b9250506040612a3286828701612973565b9150509250925092565b60008060008060808587031215612a5257600080fd5b6000612a60878288016128cb565b9450506020612a71878288016128cb565b9350506040612a8287828801612973565b925050606085013567ffffffffffffffff811115612a9f57600080fd5b612aab8782880161291f565b91505092959194509250565b60008060408385031215612aca57600080fd5b6000612ad8858286016128cb565b9250506020612ae9858286016128e0565b9150509250929050565b60008060408385031215612b0657600080fd5b6000612b14858286016128cb565b9250506020612b2585828601612973565b9150509250929050565b600060208284031215612b4157600080fd5b6000612b4f848285016128f5565b91505092915050565b600060208284031215612b6a57600080fd5b6000612b788482850161290a565b91505092915050565b600060208284031215612b9357600080fd5b600082013567ffffffffffffffff811115612bad57600080fd5b612bb984828501612949565b91505092915050565b600060208284031215612bd457600080fd5b6000612be284828501612973565b91505092915050565b6000612bf78383613528565b60208301905092915050565b612c0c81613b2d565b82525050565b6000612c1d826139ac565b612c2781856139da565b9350612c328361399c565b8060005b83811015612c63578151612c4a8882612beb565b9750612c55836139cd565b925050600181019050612c36565b5085935050505092915050565b612c7981613b3f565b82525050565b6000612c8a826139b7565b612c9481856139eb565b9350612ca4818560208601613bb0565b612cad81613d4b565b840191505092915050565b6000612cc3826139c2565b612ccd81856139fc565b9350612cdd818560208601613bb0565b612ce681613d4b565b840191505092915050565b6000612cfc826139c2565b612d068185613a0d565b9350612d16818560208601613bb0565b80840191505092915050565b6000612d2f602b836139fc565b91507f455243373231456e756d657261626c653a206f776e657220696e646578206f7560008301527f74206f6620626f756e64730000000000000000000000000000000000000000006020830152604082019050919050565b6000612d956032836139fc565b91507f4552433732313a207472616e7366657220746f206e6f6e20455243373231526560008301527f63656976657220696d706c656d656e74657200000000000000000000000000006020830152604082019050919050565b6000612dfb6026836139fc565b91507f4f776e61626c653a206e6577206f776e657220697320746865207a65726f206160008301527f64647265737300000000000000000000000000000000000000000000000000006020830152604082019050919050565b6000612e61601c836139fc565b91507f4552433732313a20746f6b656e20616c7265616479206d696e746564000000006000830152602082019050919050565b6000612ea16024836139fc565b91507f4552433732313a207472616e7366657220746f20746865207a65726f2061646460008301527f72657373000000000000000000000000000000000000000000000000000000006020830152604082019050919050565b6000612f076019836139fc565b91507f4552433732313a20617070726f766520746f2063616c6c6572000000000000006000830152602082019050919050565b6000612f47601f836139fc565b91507f45746865722076616c75652073656e74206973206e6f7420636f7272656374006000830152602082019050919050565b6000612f87602c836139fc565b91507f4552433732313a206f70657261746f7220717565727920666f72206e6f6e657860008301527f697374656e7420746f6b656e00000000000000000000000000000000000000006020830152604082019050919050565b6000612fed6038836139fc565b91507f4552433732313a20617070726f76652063616c6c6572206973206e6f74206f7760008301527f6e6572206e6f7220617070726f76656420666f7220616c6c00000000000000006020830152604082019050919050565b6000613053602a836139fc565b91507f4552433732313a2062616c616e636520717565727920666f7220746865207a6560008301527f726f2061646472657373000000000000000000000000000000000000000000006020830152604082019050919050565b60006130b96029836139fc565b91507f4552433732313a206f776e657220717565727920666f72206e6f6e657869737460008301527f656e7420746f6b656e00000000000000000000000000000000000000000000006020830152604082019050919050565b600061311f6021836139fc565b91507f43616e206f6e6c79206d696e7420323520746f6b656e7320617420612074696d60008301527f65000000000000000000000000000000000000000000000000000000000000006020830152604082019050919050565b60006131856026836139fc565b91507f53616c65206d7573742062652061637469766520746f206d696e74204465766560008301527f6c6f7065727300000000000000000000000000000000000000000000000000006020830152604082019050919050565b60006131eb6020836139fc565b91507f4552433732313a206d696e7420746f20746865207a65726f20616464726573736000830152602082019050919050565b600061322b602c836139fc565b91507f4552433732313a20617070726f76656420717565727920666f72206e6f6e657860008301527f697374656e7420746f6b656e00000000000000000000000000000000000000006020830152604082019050919050565b60006132916020836139fc565b91507f4f776e61626c653a2063616c6c6572206973206e6f7420746865206f776e65726000830152602082019050919050565b60006132d1602e836139fc565b91507f507572636861736520776f756c6420657863656564206d617820737570706c7960008301527f206f6620446576656c6f706572730000000000000000000000000000000000006020830152604082019050919050565b60006133376029836139fc565b91507f4552433732313a207472616e73666572206f6620746f6b656e2074686174206960008301527f73206e6f74206f776e00000000000000000000000000000000000000000000006020830152604082019050919050565b600061339d602f836139fc565b91507f4552433732314d657461646174613a2055524920717565727920666f72206e6f60008301527f6e6578697374656e7420746f6b656e00000000000000000000000000000000006020830152604082019050919050565b60006134036021836139fc565b91507f4552433732313a20617070726f76616c20746f2063757272656e74206f776e6560008301527f72000000000000000000000000000000000000000000000000000000000000006020830152604082019050919050565b60006134696031836139fc565b91507f4552433732313a207472616e736665722063616c6c6572206973206e6f74206f60008301527f776e6572206e6f7220617070726f7665640000000000000000000000000000006020830152604082019050919050565b60006134cf602c836139fc565b91507f455243373231456e756d657261626c653a20676c6f62616c20696e646578206f60008301527f7574206f6620626f756e647300000000000000000000000000000000000000006020830152604082019050919050565b61353181613b97565b82525050565b61354081613b97565b82525050565b60006135528285612cf1565b915061355e8284612cf1565b91508190509392505050565b600060208201905061357f6000830184612c03565b92915050565b600060808201905061359a6000830187612c03565b6135a76020830186612c03565b6135b46040830185613537565b81810360608301526135c68184612c7f565b905095945050505050565b600060208201905081810360008301526135eb8184612c12565b905092915050565b60006020820190506136086000830184612c70565b92915050565b600060208201905081810360008301526136288184612cb8565b905092915050565b6000602082019050818103600083015261364981612d22565b9050919050565b6000602082019050818103600083015261366981612d88565b9050919050565b6000602082019050818103600083015261368981612dee565b9050919050565b600060208201905081810360008301526136a981612e54565b9050919050565b600060208201905081810360008301526136c981612e94565b9050919050565b600060208201905081810360008301526136e981612efa565b9050919050565b6000602082019050818103600083015261370981612f3a565b9050919050565b6000602082019050818103600083015261372981612f7a565b9050919050565b6000602082019050818103600083015261374981612fe0565b9050919050565b6000602082019050818103600083015261376981613046565b9050919050565b60006020820190508181036000830152613789816130ac565b9050919050565b600060208201905081810360008301526137a981613112565b9050919050565b600060208201905081810360008301526137c981613178565b9050919050565b600060208201905081810360008301526137e9816131de565b9050919050565b600060208201905081810360008301526138098161321e565b9050919050565b6000602082019050818103600083015261382981613284565b9050919050565b60006020820190508181036000830152613849816132c4565b9050919050565b600060208201905081810360008301526138698161332a565b9050919050565b6000602082019050818103600083015261388981613390565b9050919050565b600060208201905081810360008301526138a9816133f6565b9050919050565b600060208201905081810360008301526138c98161345c565b9050919050565b600060208201905081810360008301526138e9816134c2565b9050919050565b60006020820190506139056000830184613537565b92915050565b6000604051905081810181811067ffffffffffffffff8211171561393257613931613d1c565b5b8060405250919050565b600067ffffffffffffffff82111561395757613956613d1c565b5b601f19601f8301169050602081019050919050565b600067ffffffffffffffff82111561398757613986613d1c565b5b601f19601f8301169050602081019050919050565b6000819050602082019050919050565b600081519050919050565b600081519050919050565b600081519050919050565b6000602082019050919050565b600082825260208201905092915050565b600082825260208201905092915050565b600082825260208201905092915050565b600081905092915050565b6000613a2382613b97565b9150613a2e83613b97565b9250827fffffffffffffffffffffffffffffffffffffffffffffffffffffffffffffffff03821115613a6357613a62613c8f565b5b828201905092915050565b6000613a7982613b97565b9150613a8483613b97565b925082613a9457613a93613cbe565b5b828204905092915050565b6000613aaa82613b97565b9150613ab583613b97565b9250817fffffffffffffffffffffffffffffffffffffffffffffffffffffffffffffffff0483118215151615613aee57613aed613c8f565b5b828202905092915050565b6000613b0482613b97565b9150613b0f83613b97565b925082821015613b2257613b21613c8f565b5b828203905092915050565b6000613b3882613b77565b9050919050565b60008115159050919050565b60007fffffffff0000000000000000000000000000000000000000000000000000000082169050919050565b600073ffffffffffffffffffffffffffffffffffffffff82169050919050565b6000819050919050565b82818337600083830152505050565b60005b83811015613bce578082015181840152602081019050613bb3565b83811115613bdd576000848401525b50505050565b60006002820490506001821680613bfb57607f821691505b60208210811415613c0f57613c0e613ced565b5b50919050565b6000613c2082613b97565b91507fffffffffffffffffffffffffffffffffffffffffffffffffffffffffffffffff821415613c5357613c52613c8f565b5b600182019050919050565b6000613c6982613b97565b9150613c7483613b97565b925082613c8457613c83613cbe565b5b828206905092915050565b7f4e487b7100000000000000000000000000000000000000000000000000000000600052601160045260246000fd5b7f4e487b7100000000000000000000000000000000000000000000000000000000600052601260045260246000fd5b7f4e487b7100000000000000000000000000000000000000000000000000000000600052602260045260246000fd5b7f4e487b7100000000000000000000000000000000000000000000000000000000600052604160045260246000fd5b6000601f19601f8301169050919050565b613d6581613b2d565b8114613d7057600080fd5b50565b613d7c81613b3f565b8114613d8757600080fd5b50565b613d9381613b4b565b8114613d9e57600080fd5b50565b613daa81613b97565b8114613db557600080fd5b5056fea2646970667358221220f9d5d9d2bb3619501a7bcb62d164059134fa28c6cded114c191aaff18bab13e764736f6c63430008000033",
  "immutableReferences": {},
  "source": "// SPDX-License-Identifier: MIT\npragma solidity ^0.8.0;\n\nimport \"@openzeppelin/contracts/token/ERC721/extensions/ERC721Enumerable.sol\";\nimport \"@openzeppelin/contracts/access/Ownable.sol\";\nimport \"@openzeppelin/contracts/utils/math/SafeMath.sol\";\n\ncontract KryptoDevelopers is ERC721Enumerable, Ownable {\n    using SafeMath for uint256;\n    using Strings for uint256;\n\n    mapping(string => bool) _developerExists;\n\n    string private _developersBaseURI;\n\n    bool public saleIsActive = false;\n\n    bool public mergeIsActive = false;\n\n    uint256 public constant MAX_MINT_QUANTITY = 25;\n\n    uint256 public constant MAX_DEVELOPERS = 27;\n\n    uint256 public constant developerPrice = 25000000000000000; // 0.025 ETH\n\n    // constructor() ERC721(\"KryptoDevelopers\", \"KDEV\") {}\n    constructor(\n        string memory name_,\n        string memory symbol_,\n        string memory baseURI_\n    ) ERC721(name_, symbol_) {\n        _developersBaseURI = baseURI_;\n    }\n\n    function flipSaleState() public onlyOwner {\n        saleIsActive = !saleIsActive;\n    }\n\n    function mint(uint256 quantity) public payable {\n        require(saleIsActive, \"Sale must be active to mint Developers\");\n        require(\n            quantity > 0 && quantity <= MAX_MINT_QUANTITY,\n            \"Can only mint 25 tokens at a time\"\n        );\n        require(\n            totalSupply().add(quantity) <= MAX_DEVELOPERS,\n            \"Purchase would exceed max supply of Developers\"\n        );\n        require(\n            msg.value >= developerPrice.mul(quantity),\n            \"Ether value sent is not correct\"\n        );\n\n        for (uint256 i = 0; i < quantity; i++) {\n            uint256 mintIndex = totalSupply();\n            if (totalSupply() < MAX_DEVELOPERS) {\n                _safeMint(msg.sender, mintIndex);\n            }\n        }\n    }\n\n    function setBaseURI(string memory baseURI_) external onlyOwner {\n        _developersBaseURI = baseURI_;\n    }\n\n    function tokenURI(uint256 tokenId)\n        public\n        view\n        virtual\n        override\n        returns (string memory)\n    {\n        require(\n            _exists(tokenId),\n            \"ERC721Metadata: URI query for nonexistent token\"\n        );\n        string memory base = _developersBaseURI;\n        return string(abi.encodePacked(base, tokenId.toString()));\n    }\n\n    function tokensOfOwner(address owner)\n        public\n        view\n        returns (uint256[] memory)\n    {\n        uint256 count = balanceOf(owner);\n        uint256[] memory ids = new uint256[](count);\n        for (uint256 i = 0; i < count; i++) {\n            ids[i] = tokenOfOwnerByIndex(owner, i);\n        }\n        return ids;\n    }\n}\n",
  "sourcePath": "/home/teixeira/repositories/kryptodevelopers/contract/contracts/KryptoDevelopers.sol",
  "compiler": {
    "name": "solc",
    "version": "0.8.0+commit.c7dfd78e.Emscripten.clang"
  },
  "schemaVersion": "3.4.3",
  "updatedAt": "2021-11-01T23:26:19.596Z",
  "devdoc": {
    "kind": "dev",
    "methods": {
      "approve(address,uint256)": {
        "details": "See {IERC721-approve}."
      },
      "balanceOf(address)": {
        "details": "See {IERC721-balanceOf}."
      },
      "getApproved(uint256)": {
        "details": "See {IERC721-getApproved}."
      },
      "isApprovedForAll(address,address)": {
        "details": "See {IERC721-isApprovedForAll}."
      },
      "name()": {
        "details": "See {IERC721Metadata-name}."
      },
      "owner()": {
        "details": "Returns the address of the current owner."
      },
      "ownerOf(uint256)": {
        "details": "See {IERC721-ownerOf}."
      },
      "renounceOwnership()": {
        "details": "Leaves the contract without owner. It will not be possible to call `onlyOwner` functions anymore. Can only be called by the current owner. NOTE: Renouncing ownership will leave the contract without an owner, thereby removing any functionality that is only available to the owner."
      },
      "safeTransferFrom(address,address,uint256)": {
        "details": "See {IERC721-safeTransferFrom}."
      },
      "safeTransferFrom(address,address,uint256,bytes)": {
        "details": "See {IERC721-safeTransferFrom}."
      },
      "setApprovalForAll(address,bool)": {
        "details": "See {IERC721-setApprovalForAll}."
      },
      "supportsInterface(bytes4)": {
        "details": "See {IERC165-supportsInterface}."
      },
      "symbol()": {
        "details": "See {IERC721Metadata-symbol}."
      },
      "tokenByIndex(uint256)": {
        "details": "See {IERC721Enumerable-tokenByIndex}."
      },
      "tokenOfOwnerByIndex(address,uint256)": {
        "details": "See {IERC721Enumerable-tokenOfOwnerByIndex}."
      },
      "tokenURI(uint256)": {
        "details": "See {IERC721Metadata-tokenURI}."
      },
      "totalSupply()": {
        "details": "See {IERC721Enumerable-totalSupply}."
      },
      "transferFrom(address,address,uint256)": {
        "details": "See {IERC721-transferFrom}."
      },
      "transferOwnership(address)": {
        "details": "Transfers ownership of the contract to a new account (`newOwner`). Can only be called by the current owner."
      }
    },
    "version": 1
  },
  "userdoc": {
    "kind": "user",
    "methods": {},
    "version": 1
  }
}