{
  "contractName": "KryptoDevelopers",
  "abi": [
    {
      "inputs": [],
      "stateMutability": "nonpayable",
      "type": "constructor"
    },
    {
      "anonymous": false,
      "inputs": [
        {
          "indexed": true,
          "internalType": "address",
          "name": "owner",
          "type": "address"
        },
        {
          "indexed": true,
          "internalType": "address",
          "name": "approved",
          "type": "address"
        },
        {
          "indexed": true,
          "internalType": "uint256",
          "name": "tokenId",
          "type": "uint256"
        }
      ],
      "name": "Approval",
      "type": "event"
    },
    {
      "anonymous": false,
      "inputs": [
        {
          "indexed": true,
          "internalType": "address",
          "name": "owner",
          "type": "address"
        },
        {
          "indexed": true,
          "internalType": "address",
          "name": "operator",
          "type": "address"
        },
        {
          "indexed": false,
          "internalType": "bool",
          "name": "approved",
          "type": "bool"
        }
      ],
      "name": "ApprovalForAll",
      "type": "event"
    },
    {
      "anonymous": false,
      "inputs": [
        {
          "indexed": true,
          "internalType": "address",
          "name": "from",
          "type": "address"
        },
        {
          "indexed": true,
          "internalType": "address",
          "name": "to",
          "type": "address"
        },
        {
          "indexed": true,
          "internalType": "uint256",
          "name": "tokenId",
          "type": "uint256"
        }
      ],
      "name": "Transfer",
      "type": "event"
    },
    {
      "inputs": [
        {
          "internalType": "address",
          "name": "to",
          "type": "address"
        },
        {
          "internalType": "uint256",
          "name": "tokenId",
          "type": "uint256"
        }
      ],
      "name": "approve",
      "outputs": [],
      "stateMutability": "nonpayable",
      "type": "function"
    },
    {
      "inputs": [
        {
          "internalType": "address",
          "name": "owner",
          "type": "address"
        }
      ],
      "name": "balanceOf",
      "outputs": [
        {
          "internalType": "uint256",
          "name": "",
          "type": "uint256"
        }
      ],
      "stateMutability": "view",
      "type": "function",
      "constant": true
    },
    {
      "inputs": [
        {
          "internalType": "uint256",
          "name": "",
          "type": "uint256"
        }
      ],
      "name": "developers",
      "outputs": [
        {
          "internalType": "string",
          "name": "",
          "type": "string"
        }
      ],
      "stateMutability": "view",
      "type": "function",
      "constant": true
    },
    {
      "inputs": [
        {
          "internalType": "uint256",
          "name": "tokenId",
          "type": "uint256"
        }
      ],
      "name": "getApproved",
      "outputs": [
        {
          "internalType": "address",
          "name": "",
          "type": "address"
        }
      ],
      "stateMutability": "view",
      "type": "function",
      "constant": true
    },
    {
      "inputs": [
        {
          "internalType": "address",
          "name": "owner",
          "type": "address"
        },
        {
          "internalType": "address",
          "name": "operator",
          "type": "address"
        }
      ],
      "name": "isApprovedForAll",
      "outputs": [
        {
          "internalType": "bool",
          "name": "",
          "type": "bool"
        }
      ],
      "stateMutability": "view",
      "type": "function",
      "constant": true
    },
    {
      "inputs": [],
      "name": "name",
      "outputs": [
        {
          "internalType": "string",
          "name": "",
          "type": "string"
        }
      ],
      "stateMutability": "view",
      "type": "function",
      "constant": true
    },
    {
      "inputs": [
        {
          "internalType": "uint256",
          "name": "tokenId",
          "type": "uint256"
        }
      ],
      "name": "ownerOf",
      "outputs": [
        {
          "internalType": "address",
          "name": "",
          "type": "address"
        }
      ],
      "stateMutability": "view",
      "type": "function",
      "constant": true
    },
    {
      "inputs": [
        {
          "internalType": "address",
          "name": "from",
          "type": "address"
        },
        {
          "internalType": "address",
          "name": "to",
          "type": "address"
        },
        {
          "internalType": "uint256",
          "name": "tokenId",
          "type": "uint256"
        }
      ],
      "name": "safeTransferFrom",
      "outputs": [],
      "stateMutability": "nonpayable",
      "type": "function"
    },
    {
      "inputs": [
        {
          "internalType": "address",
          "name": "from",
          "type": "address"
        },
        {
          "internalType": "address",
          "name": "to",
          "type": "address"
        },
        {
          "internalType": "uint256",
          "name": "tokenId",
          "type": "uint256"
        },
        {
          "internalType": "bytes",
          "name": "_data",
          "type": "bytes"
        }
      ],
      "name": "safeTransferFrom",
      "outputs": [],
      "stateMutability": "nonpayable",
      "type": "function"
    },
    {
      "inputs": [
        {
          "internalType": "address",
          "name": "operator",
          "type": "address"
        },
        {
          "internalType": "bool",
          "name": "approved",
          "type": "bool"
        }
      ],
      "name": "setApprovalForAll",
      "outputs": [],
      "stateMutability": "nonpayable",
      "type": "function"
    },
    {
      "inputs": [],
      "name": "symbol",
      "outputs": [
        {
          "internalType": "string",
          "name": "",
          "type": "string"
        }
      ],
      "stateMutability": "view",
      "type": "function",
      "constant": true
    },
    {
      "inputs": [
        {
          "internalType": "uint256",
          "name": "index",
          "type": "uint256"
        }
      ],
      "name": "tokenByIndex",
      "outputs": [
        {
          "internalType": "uint256",
          "name": "",
          "type": "uint256"
        }
      ],
      "stateMutability": "view",
      "type": "function",
      "constant": true
    },
    {
      "inputs": [
        {
          "internalType": "address",
          "name": "owner",
          "type": "address"
        },
        {
          "internalType": "uint256",
          "name": "index",
          "type": "uint256"
        }
      ],
      "name": "tokenOfOwnerByIndex",
      "outputs": [
        {
          "internalType": "uint256",
          "name": "",
          "type": "uint256"
        }
      ],
      "stateMutability": "view",
      "type": "function",
      "constant": true
    },
    {
      "inputs": [
        {
          "internalType": "uint256",
          "name": "tokenId",
          "type": "uint256"
        }
      ],
      "name": "tokenURI",
      "outputs": [
        {
          "internalType": "string",
          "name": "",
          "type": "string"
        }
      ],
      "stateMutability": "view",
      "type": "function",
      "constant": true
    },
    {
      "inputs": [],
      "name": "totalSupply",
      "outputs": [
        {
          "internalType": "uint256",
          "name": "",
          "type": "uint256"
        }
      ],
      "stateMutability": "view",
      "type": "function",
      "constant": true
    },
    {
      "inputs": [
        {
          "internalType": "address",
          "name": "from",
          "type": "address"
        },
        {
          "internalType": "address",
          "name": "to",
          "type": "address"
        },
        {
          "internalType": "uint256",
          "name": "tokenId",
          "type": "uint256"
        }
      ],
      "name": "transferFrom",
      "outputs": [],
      "stateMutability": "nonpayable",
      "type": "function"
    },
    {
      "inputs": [
        {
          "internalType": "bytes4",
          "name": "interfaceId",
          "type": "bytes4"
        }
      ],
      "name": "supportsInterface",
      "outputs": [
        {
          "internalType": "bool",
          "name": "",
          "type": "bool"
        }
      ],
      "stateMutability": "view",
      "type": "function",
      "constant": true
    },
    {
      "inputs": [
        {
          "internalType": "string",
          "name": "_developer",
          "type": "string"
        }
      ],
      "name": "mint",
      "outputs": [],
      "stateMutability": "nonpayable",
      "type": "function"
    }
  ],
  "bytecode": "0x60806040523480156200001157600080fd5b506040518060400160405280601081526020017f4b727970746f446576656c6f70657273000000000000000000000000000000008152506040518060400160405280600481526020017f4b44455600000000000000000000000000000000000000000000000000000000815250816000908051906020019062000096929190620000b8565b508060019080519060200190620000af929190620000b8565b505050620001cd565b828054620000c69062000168565b90600052602060002090601f016020900481019282620000ea576000855562000136565b82601f106200010557805160ff191683800117855562000136565b8280016001018555821562000136579182015b828111156200013557825182559160200191906001019062000118565b5b50905062000145919062000149565b5090565b5b80821115620001645760008160009055506001016200014a565b5090565b600060028204905060018216806200018157607f821691505b602082108114156200019857620001976200019e565b5b50919050565b7f4e487b7100000000000000000000000000000000000000000000000000000000600052602260045260246000fd5b6130d580620001dd6000396000f3fe608060405234801561001057600080fd5b50600436106101165760003560e01c80636352211e116100a2578063b88d4fde11610071578063b88d4fde14610305578063c87b56dd14610321578063d85d3d2714610351578063e985e9c51461036d578063eff25cd61461039d57610116565b80636352211e1461026b57806370a082311461029b57806395d89b41146102cb578063a22cb465146102e957610116565b806318160ddd116100e957806318160ddd146101b557806323b872dd146101d35780632f745c59146101ef57806342842e0e1461021f5780634f6ccce71461023b57610116565b806301ffc9a71461011b57806306fdde031461014b578063081812fc14610169578063095ea7b314610199575b600080fd5b61013560048036038101906101309190612211565b6103cd565b6040516101429190612a2d565b60405180910390f35b6101536103df565b6040516101609190612a48565b60405180910390f35b610183600480360381019061017e91906122a4565b610471565b60405161019091906129c6565b60405180910390f35b6101b360048036038101906101ae91906121d5565b6104f6565b005b6101bd61060e565b6040516101ca9190612c6a565b60405180910390f35b6101ed60048036038101906101e891906120cf565b61061b565b005b610209600480360381019061020491906121d5565b61067b565b6040516102169190612c6a565b60405180910390f35b610239600480360381019061023491906120cf565b610720565b005b610255600480360381019061025091906122a4565b610740565b6040516102629190612c6a565b60405180910390f35b610285600480360381019061028091906122a4565b6107d7565b60405161029291906129c6565b60405180910390f35b6102b560048036038101906102b0919061206a565b610889565b6040516102c29190612c6a565b60405180910390f35b6102d3610941565b6040516102e09190612a48565b60405180910390f35b61030360048036038101906102fe9190612199565b6109d3565b005b61031f600480360381019061031a919061211e565b610b54565b005b61033b600480360381019061033691906122a4565b610bb6565b6040516103489190612a48565b60405180910390f35b61036b60048036038101906103669190612263565b610c5d565b005b61038760048036038101906103829190612093565b610ce8565b6040516103949190612a2d565b60405180910390f35b6103b760048036038101906103b291906122a4565b610d7c565b6040516103c49190612a48565b60405180910390f35b60006103d882610e28565b9050919050565b6060600080546103ee90612eca565b80601f016020809104026020016040519081016040528092919081815260200182805461041a90612eca565b80156104675780601f1061043c57610100808354040283529160200191610467565b820191906000526020600020905b81548152906001019060200180831161044a57829003601f168201915b5050505050905090565b600061047c82610ea2565b6104bb576040517f08c379a00000000000000000000000000000000000000000000000000000000081526004016104b290612baa565b60405180910390fd5b6004600083815260200190815260200160002060009054906101000a900473ffffffffffffffffffffffffffffffffffffffff169050919050565b6000610501826107d7565b90508073ffffffffffffffffffffffffffffffffffffffff168373ffffffffffffffffffffffffffffffffffffffff161415610572576040517f08c379a000000000000000000000000000000000000000000000000000000000815260040161056990612c0a565b60405180910390fd5b8073ffffffffffffffffffffffffffffffffffffffff16610591610f0e565b73ffffffffffffffffffffffffffffffffffffffff1614806105c057506105bf816105ba610f0e565b610ce8565b5b6105ff576040517f08c379a00000000000000000000000000000000000000000000000000000000081526004016105f690612b2a565b60405180910390fd5b6106098383610f16565b505050565b6000600880549050905090565b61062c610626610f0e565b82610fcf565b61066b576040517f08c379a000000000000000000000000000000000000000000000000000000000815260040161066290612c2a565b60405180910390fd5b6106768383836110ad565b505050565b600061068683610889565b82106106c7576040517f08c379a00000000000000000000000000000000000000000000000000000000081526004016106be90612a6a565b60405180910390fd5b600660008473ffffffffffffffffffffffffffffffffffffffff1673ffffffffffffffffffffffffffffffffffffffff168152602001908152602001600020600083815260200190815260200160002054905092915050565b61073b83838360405180602001604052806000815250610b54565b505050565b600061074a61060e565b821061078b576040517f08c379a000000000000000000000000000000000000000000000000000000000815260040161078290612c4a565b60405180910390fd5b600882815481106107c5577f4e487b7100000000000000000000000000000000000000000000000000000000600052603260045260246000fd5b90600052602060002001549050919050565b6000806002600084815260200190815260200160002060009054906101000a900473ffffffffffffffffffffffffffffffffffffffff169050600073ffffffffffffffffffffffffffffffffffffffff168173ffffffffffffffffffffffffffffffffffffffff161415610880576040517f08c379a000000000000000000000000000000000000000000000000000000000815260040161087790612b6a565b60405180910390fd5b80915050919050565b60008073ffffffffffffffffffffffffffffffffffffffff168273ffffffffffffffffffffffffffffffffffffffff1614156108fa576040517f08c379a00000000000000000000000000000000000000000000000000000000081526004016108f190612b4a565b60405180910390fd5b600360008373ffffffffffffffffffffffffffffffffffffffff1673ffffffffffffffffffffffffffffffffffffffff168152602001908152602001600020549050919050565b60606001805461095090612eca565b80601f016020809104026020016040519081016040528092919081815260200182805461097c90612eca565b80156109c95780601f1061099e576101008083540402835291602001916109c9565b820191906000526020600020905b8154815290600101906020018083116109ac57829003601f168201915b5050505050905090565b6109db610f0e565b73ffffffffffffffffffffffffffffffffffffffff168273ffffffffffffffffffffffffffffffffffffffff161415610a49576040517f08c379a0000000000000000000000000000000000000000000000000000000008152600401610a4090612aea565b60405180910390fd5b8060056000610a56610f0e565b73ffffffffffffffffffffffffffffffffffffffff1673ffffffffffffffffffffffffffffffffffffffff16815260200190815260200160002060008473ffffffffffffffffffffffffffffffffffffffff1673ffffffffffffffffffffffffffffffffffffffff16815260200190815260200160002060006101000a81548160ff0219169083151502179055508173ffffffffffffffffffffffffffffffffffffffff16610b03610f0e565b73ffffffffffffffffffffffffffffffffffffffff167f17307eab39ab6107e8899845ad3d59bd9653f200f220920489ca2b5937696c3183604051610b489190612a2d565b60405180910390a35050565b610b65610b5f610f0e565b83610fcf565b610ba4576040517f08c379a0000000000000000000000000000000000000000000000000000000008152600401610b9b90612c2a565b60405180910390fd5b610bb084848484611309565b50505050565b6060610bc182610ea2565b610c00576040517f08c379a0000000000000000000000000000000000000000000000000000000008152600401610bf790612bea565b60405180910390fd5b6000610c0a611365565b90506000815111610c2a5760405180602001604052806000815250610c55565b80610c348461137c565b604051602001610c459291906129a2565b6040516020818303038152906040525b915050919050565b600a81908060018154018082558091505060019003906000526020600020016000909190919091509080519060200190610c98929190611e8e565b506000600a805490509050610cad3382611529565b6001600b83604051610cbf919061298b565b908152602001604051809103902060006101000a81548160ff0219169083151502179055505050565b6000600560008473ffffffffffffffffffffffffffffffffffffffff1673ffffffffffffffffffffffffffffffffffffffff16815260200190815260200160002060008373ffffffffffffffffffffffffffffffffffffffff1673ffffffffffffffffffffffffffffffffffffffff16815260200190815260200160002060009054906101000a900460ff16905092915050565b600a8181548110610d8c57600080fd5b906000526020600020016000915090508054610da790612eca565b80601f0160208091040260200160405190810160405280929190818152602001828054610dd390612eca565b8015610e205780601f10610df557610100808354040283529160200191610e20565b820191906000526020600020905b815481529060010190602001808311610e0357829003601f168201915b505050505081565b60007f780e9d63000000000000000000000000000000000000000000000000000000007bffffffffffffffffffffffffffffffffffffffffffffffffffffffff1916827bffffffffffffffffffffffffffffffffffffffffffffffffffffffff19161480610e9b5750610e9a826116f7565b5b9050919050565b60008073ffffffffffffffffffffffffffffffffffffffff166002600084815260200190815260200160002060009054906101000a900473ffffffffffffffffffffffffffffffffffffffff1673ffffffffffffffffffffffffffffffffffffffff1614159050919050565b600033905090565b816004600083815260200190815260200160002060006101000a81548173ffffffffffffffffffffffffffffffffffffffff021916908373ffffffffffffffffffffffffffffffffffffffff160217905550808273ffffffffffffffffffffffffffffffffffffffff16610f89836107d7565b73ffffffffffffffffffffffffffffffffffffffff167f8c5be1e5ebec7d5bd14f71427d1e84f3dd0314c0f7b2291e5b200ac8c7c3b92560405160405180910390a45050565b6000610fda82610ea2565b611019576040517f08c379a000000000000000000000000000000000000000000000000000000000815260040161101090612b0a565b60405180910390fd5b6000611024836107d7565b90508073ffffffffffffffffffffffffffffffffffffffff168473ffffffffffffffffffffffffffffffffffffffff16148061109357508373ffffffffffffffffffffffffffffffffffffffff1661107b84610471565b73ffffffffffffffffffffffffffffffffffffffff16145b806110a457506110a38185610ce8565b5b91505092915050565b8273ffffffffffffffffffffffffffffffffffffffff166110cd826107d7565b73ffffffffffffffffffffffffffffffffffffffff1614611123576040517f08c379a000000000000000000000000000000000000000000000000000000000815260040161111a90612bca565b60405180910390fd5b600073ffffffffffffffffffffffffffffffffffffffff168273ffffffffffffffffffffffffffffffffffffffff161415611193576040517f08c379a000000000000000000000000000000000000000000000000000000000815260040161118a90612aca565b60405180910390fd5b61119e8383836117d9565b6111a9600082610f16565b6001600360008573ffffffffffffffffffffffffffffffffffffffff1673ffffffffffffffffffffffffffffffffffffffff16815260200190815260200160002060008282546111f99190612de0565b925050819055506001600360008473ffffffffffffffffffffffffffffffffffffffff1673ffffffffffffffffffffffffffffffffffffffff16815260200190815260200160002060008282546112509190612d59565b92505081905550816002600083815260200190815260200160002060006101000a81548173ffffffffffffffffffffffffffffffffffffffff021916908373ffffffffffffffffffffffffffffffffffffffff160217905550808273ffffffffffffffffffffffffffffffffffffffff168473ffffffffffffffffffffffffffffffffffffffff167fddf252ad1be2c89b69c2b068fc378daa952ba7f163c4a11628f55a4df523b3ef60405160405180910390a4505050565b6113148484846110ad565b611320848484846117e9565b61135f576040517f08c379a000000000000000000000000000000000000000000000000000000000815260040161135690612a8a565b60405180910390fd5b50505050565b606060405180602001604052806000815250905090565b606060008214156113c4576040518060400160405280600181526020017f30000000000000000000000000000000000000000000000000000000000000008152509050611524565b600082905060005b600082146113f65780806113df90612efc565b915050600a826113ef9190612daf565b91506113cc565b60008167ffffffffffffffff811115611438577f4e487b7100000000000000000000000000000000000000000000000000000000600052604160045260246000fd5b6040519080825280601f01601f19166020018201604052801561146a5781602001600182028036833780820191505090505b5090505b6000851461151d576001826114839190612de0565b9150600a856114929190612f45565b603061149e9190612d59565b60f81b8183815181106114da577f4e487b7100000000000000000000000000000000000000000000000000000000600052603260045260246000fd5b60200101907effffffffffffffffffffffffffffffffffffffffffffffffffffffffffffff1916908160001a905350600a856115169190612daf565b945061146e565b8093505050505b919050565b600073ffffffffffffffffffffffffffffffffffffffff168273ffffffffffffffffffffffffffffffffffffffff161415611599576040517f08c379a000000000000000000000000000000000000000000000000000000000815260040161159090612b8a565b60405180910390fd5b6115a281610ea2565b156115e2576040517f08c379a00000000000000000000000000000000000000000000000000000000081526004016115d990612aaa565b60405180910390fd5b6115ee600083836117d9565b6001600360008473ffffffffffffffffffffffffffffffffffffffff1673ffffffffffffffffffffffffffffffffffffffff168152602001908152602001600020600082825461163e9190612d59565b92505081905550816002600083815260200190815260200160002060006101000a81548173ffffffffffffffffffffffffffffffffffffffff021916908373ffffffffffffffffffffffffffffffffffffffff160217905550808273ffffffffffffffffffffffffffffffffffffffff16600073ffffffffffffffffffffffffffffffffffffffff167fddf252ad1be2c89b69c2b068fc378daa952ba7f163c4a11628f55a4df523b3ef60405160405180910390a45050565b60007f80ac58cd000000000000000000000000000000000000000000000000000000007bffffffffffffffffffffffffffffffffffffffffffffffffffffffff1916827bffffffffffffffffffffffffffffffffffffffffffffffffffffffff191614806117c257507f5b5e139f000000000000000000000000000000000000000000000000000000007bffffffffffffffffffffffffffffffffffffffffffffffffffffffff1916827bffffffffffffffffffffffffffffffffffffffffffffffffffffffff1916145b806117d257506117d182611980565b5b9050919050565b6117e48383836119ea565b505050565b600061180a8473ffffffffffffffffffffffffffffffffffffffff16611afe565b15611973578373ffffffffffffffffffffffffffffffffffffffff1663150b7a02611833610f0e565b8786866040518563ffffffff1660e01b815260040161185594939291906129e1565b602060405180830381600087803b15801561186f57600080fd5b505af19250505080156118a057506040513d601f19601f8201168201806040525081019061189d919061223a565b60015b611923573d80600081146118d0576040519150601f19603f3d011682016040523d82523d6000602084013e6118d5565b606091505b5060008151141561191b576040517f08c379a000000000000000000000000000000000000000000000000000000000815260040161191290612a8a565b60405180910390fd5b805181602001fd5b63150b7a0260e01b7bffffffffffffffffffffffffffffffffffffffffffffffffffffffff1916817bffffffffffffffffffffffffffffffffffffffffffffffffffffffff191614915050611978565b600190505b949350505050565b60007f01ffc9a7000000000000000000000000000000000000000000000000000000007bffffffffffffffffffffffffffffffffffffffffffffffffffffffff1916827bffffffffffffffffffffffffffffffffffffffffffffffffffffffff1916149050919050565b6119f5838383611b11565b600073ffffffffffffffffffffffffffffffffffffffff168373ffffffffffffffffffffffffffffffffffffffff161415611a3857611a3381611b16565b611a77565b8173ffffffffffffffffffffffffffffffffffffffff168373ffffffffffffffffffffffffffffffffffffffff1614611a7657611a758382611b5f565b5b5b600073ffffffffffffffffffffffffffffffffffffffff168273ffffffffffffffffffffffffffffffffffffffff161415611aba57611ab581611ccc565b611af9565b8273ffffffffffffffffffffffffffffffffffffffff168273ffffffffffffffffffffffffffffffffffffffff1614611af857611af78282611e0f565b5b5b505050565b600080823b905060008111915050919050565b505050565b6008805490506009600083815260200190815260200160002081905550600881908060018154018082558091505060019003906000526020600020016000909190919091505550565b60006001611b6c84610889565b611b769190612de0565b9050600060076000848152602001908152602001600020549050818114611c5b576000600660008673ffffffffffffffffffffffffffffffffffffffff1673ffffffffffffffffffffffffffffffffffffffff168152602001908152602001600020600084815260200190815260200160002054905080600660008773ffffffffffffffffffffffffffffffffffffffff1673ffffffffffffffffffffffffffffffffffffffff168152602001908152602001600020600084815260200190815260200160002081905550816007600083815260200190815260200160002081905550505b6007600084815260200190815260200160002060009055600660008573ffffffffffffffffffffffffffffffffffffffff1673ffffffffffffffffffffffffffffffffffffffff16815260200190815260200160002060008381526020019081526020016000206000905550505050565b60006001600880549050611ce09190612de0565b9050600060096000848152602001908152602001600020549050600060088381548110611d36577f4e487b7100000000000000000000000000000000000000000000000000000000600052603260045260246000fd5b906000526020600020015490508060088381548110611d7e577f4e487b7100000000000000000000000000000000000000000000000000000000600052603260045260246000fd5b906000526020600020018190555081600960008381526020019081526020016000208190555060096000858152602001908152602001600020600090556008805480611df3577f4e487b7100000000000000000000000000000000000000000000000000000000600052603160045260246000fd5b6001900381819060005260206000200160009055905550505050565b6000611e1a83610889565b905081600660008573ffffffffffffffffffffffffffffffffffffffff1673ffffffffffffffffffffffffffffffffffffffff168152602001908152602001600020600083815260200190815260200160002081905550806007600084815260200190815260200160002081905550505050565b828054611e9a90612eca565b90600052602060002090601f016020900481019282611ebc5760008555611f03565b82601f10611ed557805160ff1916838001178555611f03565b82800160010185558215611f03579182015b82811115611f02578251825591602001919060010190611ee7565b5b509050611f109190611f14565b5090565b5b80821115611f2d576000816000905550600101611f15565b5090565b6000611f44611f3f84612cb6565b612c85565b905082815260208101848484011115611f5c57600080fd5b611f67848285612e88565b509392505050565b6000611f82611f7d84612ce6565b612c85565b905082815260208101848484011115611f9a57600080fd5b611fa5848285612e88565b509392505050565b600081359050611fbc81613043565b92915050565b600081359050611fd18161305a565b92915050565b600081359050611fe681613071565b92915050565b600081519050611ffb81613071565b92915050565b600082601f83011261201257600080fd5b8135612022848260208601611f31565b91505092915050565b600082601f83011261203c57600080fd5b813561204c848260208601611f6f565b91505092915050565b60008135905061206481613088565b92915050565b60006020828403121561207c57600080fd5b600061208a84828501611fad565b91505092915050565b600080604083850312156120a657600080fd5b60006120b485828601611fad565b92505060206120c585828601611fad565b9150509250929050565b6000806000606084860312156120e457600080fd5b60006120f286828701611fad565b935050602061210386828701611fad565b925050604061211486828701612055565b9150509250925092565b6000806000806080858703121561213457600080fd5b600061214287828801611fad565b945050602061215387828801611fad565b935050604061216487828801612055565b925050606085013567ffffffffffffffff81111561218157600080fd5b61218d87828801612001565b91505092959194509250565b600080604083850312156121ac57600080fd5b60006121ba85828601611fad565b92505060206121cb85828601611fc2565b9150509250929050565b600080604083850312156121e857600080fd5b60006121f685828601611fad565b925050602061220785828601612055565b9150509250929050565b60006020828403121561222357600080fd5b600061223184828501611fd7565b91505092915050565b60006020828403121561224c57600080fd5b600061225a84828501611fec565b91505092915050565b60006020828403121561227557600080fd5b600082013567ffffffffffffffff81111561228f57600080fd5b61229b8482850161202b565b91505092915050565b6000602082840312156122b657600080fd5b60006122c484828501612055565b91505092915050565b6122d681612e14565b82525050565b6122e581612e26565b82525050565b60006122f682612d16565b6123008185612d2c565b9350612310818560208601612e97565b61231981613032565b840191505092915050565b600061232f82612d21565b6123398185612d3d565b9350612349818560208601612e97565b61235281613032565b840191505092915050565b600061236882612d21565b6123728185612d4e565b9350612382818560208601612e97565b80840191505092915050565b600061239b602b83612d3d565b91507f455243373231456e756d657261626c653a206f776e657220696e646578206f7560008301527f74206f6620626f756e64730000000000000000000000000000000000000000006020830152604082019050919050565b6000612401603283612d3d565b91507f4552433732313a207472616e7366657220746f206e6f6e20455243373231526560008301527f63656976657220696d706c656d656e74657200000000000000000000000000006020830152604082019050919050565b6000612467601c83612d3d565b91507f4552433732313a20746f6b656e20616c7265616479206d696e746564000000006000830152602082019050919050565b60006124a7602483612d3d565b91507f4552433732313a207472616e7366657220746f20746865207a65726f2061646460008301527f72657373000000000000000000000000000000000000000000000000000000006020830152604082019050919050565b600061250d601983612d3d565b91507f4552433732313a20617070726f766520746f2063616c6c6572000000000000006000830152602082019050919050565b600061254d602c83612d3d565b91507f4552433732313a206f70657261746f7220717565727920666f72206e6f6e657860008301527f697374656e7420746f6b656e00000000000000000000000000000000000000006020830152604082019050919050565b60006125b3603883612d3d565b91507f4552433732313a20617070726f76652063616c6c6572206973206e6f74206f7760008301527f6e6572206e6f7220617070726f76656420666f7220616c6c00000000000000006020830152604082019050919050565b6000612619602a83612d3d565b91507f4552433732313a2062616c616e636520717565727920666f7220746865207a6560008301527f726f2061646472657373000000000000000000000000000000000000000000006020830152604082019050919050565b600061267f602983612d3d565b91507f4552433732313a206f776e657220717565727920666f72206e6f6e657869737460008301527f656e7420746f6b656e00000000000000000000000000000000000000000000006020830152604082019050919050565b60006126e5602083612d3d565b91507f4552433732313a206d696e7420746f20746865207a65726f20616464726573736000830152602082019050919050565b6000612725602c83612d3d565b91507f4552433732313a20617070726f76656420717565727920666f72206e6f6e657860008301527f697374656e7420746f6b656e00000000000000000000000000000000000000006020830152604082019050919050565b600061278b602983612d3d565b91507f4552433732313a207472616e73666572206f6620746f6b656e2074686174206960008301527f73206e6f74206f776e00000000000000000000000000000000000000000000006020830152604082019050919050565b60006127f1602f83612d3d565b91507f4552433732314d657461646174613a2055524920717565727920666f72206e6f60008301527f6e6578697374656e7420746f6b656e00000000000000000000000000000000006020830152604082019050919050565b6000612857602183612d3d565b91507f4552433732313a20617070726f76616c20746f2063757272656e74206f776e6560008301527f72000000000000000000000000000000000000000000000000000000000000006020830152604082019050919050565b60006128bd603183612d3d565b91507f4552433732313a207472616e736665722063616c6c6572206973206e6f74206f60008301527f776e6572206e6f7220617070726f7665640000000000000000000000000000006020830152604082019050919050565b6000612923602c83612d3d565b91507f455243373231456e756d657261626c653a20676c6f62616c20696e646578206f60008301527f7574206f6620626f756e647300000000000000000000000000000000000000006020830152604082019050919050565b61298581612e7e565b82525050565b6000612997828461235d565b915081905092915050565b60006129ae828561235d565b91506129ba828461235d565b91508190509392505050565b60006020820190506129db60008301846122cd565b92915050565b60006080820190506129f660008301876122cd565b612a0360208301866122cd565b612a10604083018561297c565b8181036060830152612a2281846122eb565b905095945050505050565b6000602082019050612a4260008301846122dc565b92915050565b60006020820190508181036000830152612a628184612324565b905092915050565b60006020820190508181036000830152612a838161238e565b9050919050565b60006020820190508181036000830152612aa3816123f4565b9050919050565b60006020820190508181036000830152612ac38161245a565b9050919050565b60006020820190508181036000830152612ae38161249a565b9050919050565b60006020820190508181036000830152612b0381612500565b9050919050565b60006020820190508181036000830152612b2381612540565b9050919050565b60006020820190508181036000830152612b43816125a6565b9050919050565b60006020820190508181036000830152612b638161260c565b9050919050565b60006020820190508181036000830152612b8381612672565b9050919050565b60006020820190508181036000830152612ba3816126d8565b9050919050565b60006020820190508181036000830152612bc381612718565b9050919050565b60006020820190508181036000830152612be38161277e565b9050919050565b60006020820190508181036000830152612c03816127e4565b9050919050565b60006020820190508181036000830152612c238161284a565b9050919050565b60006020820190508181036000830152612c43816128b0565b9050919050565b60006020820190508181036000830152612c6381612916565b9050919050565b6000602082019050612c7f600083018461297c565b92915050565b6000604051905081810181811067ffffffffffffffff82111715612cac57612cab613003565b5b8060405250919050565b600067ffffffffffffffff821115612cd157612cd0613003565b5b601f19601f8301169050602081019050919050565b600067ffffffffffffffff821115612d0157612d00613003565b5b601f19601f8301169050602081019050919050565b600081519050919050565b600081519050919050565b600082825260208201905092915050565b600082825260208201905092915050565b600081905092915050565b6000612d6482612e7e565b9150612d6f83612e7e565b9250827fffffffffffffffffffffffffffffffffffffffffffffffffffffffffffffffff03821115612da457612da3612f76565b5b828201905092915050565b6000612dba82612e7e565b9150612dc583612e7e565b925082612dd557612dd4612fa5565b5b828204905092915050565b6000612deb82612e7e565b9150612df683612e7e565b925082821015612e0957612e08612f76565b5b828203905092915050565b6000612e1f82612e5e565b9050919050565b60008115159050919050565b60007fffffffff0000000000000000000000000000000000000000000000000000000082169050919050565b600073ffffffffffffffffffffffffffffffffffffffff82169050919050565b6000819050919050565b82818337600083830152505050565b60005b83811015612eb5578082015181840152602081019050612e9a565b83811115612ec4576000848401525b50505050565b60006002820490506001821680612ee257607f821691505b60208210811415612ef657612ef5612fd4565b5b50919050565b6000612f0782612e7e565b91507fffffffffffffffffffffffffffffffffffffffffffffffffffffffffffffffff821415612f3a57612f39612f76565b5b600182019050919050565b6000612f5082612e7e565b9150612f5b83612e7e565b925082612f6b57612f6a612fa5565b5b828206905092915050565b7f4e487b7100000000000000000000000000000000000000000000000000000000600052601160045260246000fd5b7f4e487b7100000000000000000000000000000000000000000000000000000000600052601260045260246000fd5b7f4e487b7100000000000000000000000000000000000000000000000000000000600052602260045260246000fd5b7f4e487b7100000000000000000000000000000000000000000000000000000000600052604160045260246000fd5b6000601f19601f8301169050919050565b61304c81612e14565b811461305757600080fd5b50565b61306381612e26565b811461306e57600080fd5b50565b61307a81612e32565b811461308557600080fd5b50565b61309181612e7e565b811461309c57600080fd5b5056fea2646970667358221220a96ce641ccc27e8dd367e6bcbd66561431100d97aa697250e847e60d71a8cb1d64736f6c63430008000033",
  "immutableReferences": {},
  "source": "// SPDX-License-Identifier: MIT\npragma solidity ^0.8.0;\n\nimport \"@openzeppelin/contracts/token/ERC721/extensions/ERC721Enumerable.sol\";\nimport \"@openzeppelin/contracts/token/ERC721/ERC721.sol\";\n\ncontract KryptoDevelopers is ERC721, ERC721Enumerable {\n    string[] public developers;\n    mapping(string => bool) _developerExists;\n\n    constructor() ERC721(\"KryptoDevelopers\", \"KDEV\") {}\n\n    function _beforeTokenTransfer(\n        address from,\n        address to,\n        uint256 tokenId\n    ) internal override(ERC721, ERC721Enumerable) {\n        super._beforeTokenTransfer(from, to, tokenId);\n    }\n\n    function supportsInterface(bytes4 interfaceId)\n        public\n        view\n        override(ERC721, ERC721Enumerable)\n        returns (bool)\n    {\n        return super.supportsInterface(interfaceId);\n    }\n\n    function mint(string memory _developer) public {\n        developers.push(_developer);\n        uint256 _id = developers.length;\n        _mint(msg.sender, _id);\n        _developerExists[_developer] = true;\n    }\n}\n",
  "sourcePath": "/home/teixeira/repositories/kryptodevelopers/contract/contracts/KryptoDevelopers.sol",
  "compiler": {
    "name": "solc",
    "version": "0.8.0+commit.c7dfd78e.Emscripten.clang"
  },
  "schemaVersion": "3.4.3",
  "updatedAt": "2021-10-21T20:33:28.176Z",
  "networkType": "ethereum",
  "devdoc": {
    "kind": "dev",
    "methods": {
      "approve(address,uint256)": {
        "details": "See {IERC721-approve}."
      },
      "balanceOf(address)": {
        "details": "See {IERC721-balanceOf}."
      },
      "getApproved(uint256)": {
        "details": "See {IERC721-getApproved}."
      },
      "isApprovedForAll(address,address)": {
        "details": "See {IERC721-isApprovedForAll}."
      },
      "name()": {
        "details": "See {IERC721Metadata-name}."
      },
      "ownerOf(uint256)": {
        "details": "See {IERC721-ownerOf}."
      },
      "safeTransferFrom(address,address,uint256)": {
        "details": "See {IERC721-safeTransferFrom}."
      },
      "safeTransferFrom(address,address,uint256,bytes)": {
        "details": "See {IERC721-safeTransferFrom}."
      },
      "setApprovalForAll(address,bool)": {
        "details": "See {IERC721-setApprovalForAll}."
      },
      "symbol()": {
        "details": "See {IERC721Metadata-symbol}."
      },
      "tokenByIndex(uint256)": {
        "details": "See {IERC721Enumerable-tokenByIndex}."
      },
      "tokenOfOwnerByIndex(address,uint256)": {
        "details": "See {IERC721Enumerable-tokenOfOwnerByIndex}."
      },
      "tokenURI(uint256)": {
        "details": "See {IERC721Metadata-tokenURI}."
      },
      "totalSupply()": {
        "details": "See {IERC721Enumerable-totalSupply}."
      },
      "transferFrom(address,address,uint256)": {
        "details": "See {IERC721-transferFrom}."
      }
    },
    "version": 1
  },
  "userdoc": {
    "kind": "user",
    "methods": {},
    "version": 1
  }
}